S01D00004475616C53746570706572436F6E74726F6C6C65722E737265637A
S1130000C3C00000DEC00000DCC00000DAC0000095
S1130010D8C00000D6C00000D4C00000D2C0000088
S1130020D0C00000CEC000000C94440E0C94090F04
S1130030C8C00000C6C00000C4C00000C2C00000A8
S1130040C0C000000C946909BCC00000BAC0000024
S1130050B8C00000B6C00000B4C00000B2C00000C8
S1130060B0C00000AEC00000ACC00000AAC00000D8
S1130070A8C00000A6C00000A4C00000A2C00000E8
S1130080A0C000009EC000009CC000009AC00000F8
S113009098C0000096C0000094C0000092C0000008
S11300A090C000008EC000008CC000004E414E493C
S11300B04E495459494E46CDCCCC3D0AD7233C1722
S11300C0B7D13877CC2B329595E6241FB14F0A006F
S11300D00020410000C84200401C4620BCBE4CCA5F
S11300E01B0E5AAEC59D742C034400750061006C50
S11300F000530074006500700070006500720043D6
S1130100006F006E00740072006F006C006C00657C
S113011000720000001C034D006900630068006168
S11301200065006C0020004C006F006F00730065D8
S11301300000000403090409023E00020100C03269
S11301400904000001020201000524001001042436
S113015002060524060001070582030800FF0904BE
S11301600100020A0000000705040210000507054B
S1130170830210000512011001020000082910A1D9
S11301804201000102DC010011241FBECFEFDAE0BE
S1130190DEBFCDBF11E0A0E0B1E0ECE9F0E302C0C6
S11301A005900D92AE36B107D9F722E0AEE6B1E084
S11301B001C01D92AC34B207E1F70E94ED100C941B
S11301C04C181ECFCF93DF93FB012FB7F8944285D1
S11301D053852FBF2085318542175307F9F0EB0172
S11301E00E94860A9923D4F0FE01A081B1818C93E8
S11301F08081918101969183808326813781821742
S1130200930721F484819581918380832FB7F89497
S1130210828593850196938782872FBFDF91CF9143
S113022008958FB7F894DB011A964D915C911B9752
S11302308FBF4115510509F453C0809110028111FB
S11302404AC0E3E0F2E08DE0DF011D928A95E9F710
S1130250F0931402E093130281E080931002FB01F7
S1130260A281B3812D91B383A28386819781A8173C
S1130270B90721F484819581938382833FB7F894ED
S1130280828593850197938782873FBF2A30B1F097
S11302902D30A1F0E0911302F0911402CF018350AC
S11302A092400C975CF4CF010196909314028093D2
S11302B0130220834150510991F60895809113024D
S11302C09091140283509240181619064CF482E05F
S11302D080931002089580911002813009F4BFCFF9
S11302E008950F931F93CF93DF93CDB7DEB7E097B5
S11302F00FB6F894DEBF0FBECDBF9C0190911002E3
S1130300923009F03FC489018FE390E09AA389A356
S1130310FE01B3968EE0DF011D928A95E9F7809184
S113032003028F7D8235A9F4809104028F7D833589
S113033039F5809105028F7D843511F598E088E1C7
S11303400FB6F894A895809360000FBE9093600058
S1130350FFCF8834A9F4809104028F7D8C3409F096
S113036043C0809105028F7D843509F03DC0BED421
S113037088E49CE49AA389A384E590E09CA38BA3DE
S113038080910302982F9F7D953471F5909104021A
S11303909F7D933509F0B6C3809105028F7D843526
S11303A049F4A6D485E493E59AA389A384E590E06F
S11303B09CA38BA380910302853409F4AFC38536D3
S11303C099F4809104028F7D833571F48091050244
S11303D08F7D823549F492D485E493E59AA389A369
S11303E082E590E09CA38BA3809103028F7D8035EE
S11303F031F5809104028F7D813409F096C3809198
S113040005028F7D823509F090C3809106028F7DAD
S1130410813409F08AC3809107028F7D8D3409F0FD
S113042084C364D482E08093350286E0EFE1F1E096
S1130430DE01919601900D928A95E1F705C08091B5
S11304403502823009F0B8C2809103028F7D853471
S113045029F5809104028F7D883509F0ADC2809121
S113046005028F7D893409F0A7C2809106028F7D31
S1130470843509F0A1C23AD41092350285E0E5E250
S1130480F1E0DE01919601900D928A95E1F7809159
S113049003028F7D8154823040F092C28091030226
S11304A08F7D8154823008F087C2809104028F7D51
S11304B08335D9F5809105028F7D803509F0B1C06F
S11304C0809106028F7D853509F0ABC080910702CB
S11304D08D33A9F488E092E00E94AF136093150273
S11304E070931602809317029093180285E0EAE253
S11304F0F1E0DE01919601900D928A95E1F78091E9
S113050007028F3391F440911502509116026091C5
S1130510170270911802CE0101967BD3BE016F5F62
S11305207F4FCE0181960E94BD13809104028F7D7E
S1130530863509F0B7C0809105028F7D8C3409F0AF
S1130540FAC2909106029F7D9D3409F0F4C2909105
S113055007029D3301F590910802903361F41092E3
S11305601D0295E0EFE2F1E0DE01919601900D921B
S11305709A95E1F7E0C2913309F0DDC291E09093DE
S11305801D0295E0EFE2F1E0DE01919601900D92FB
S11305909A95E1F7D0C29F3309F0CDC290911D0224
S11305A0913019F0EDE1F1E002C0EBE1F1E02081DE
S11305B031813AA329A3BFC2809106028F7D883579
S11305C0A9F5809107028D3309F0B9C288E092E061
S11305D00E94AF1360931E0270931F028093200247
S11305E09093210285E0E4E3F1E0DE01919601902D
S11305F00D928A95E1F7809107028F3391F440912F
S11306001E0250911F026091200270912102CE01BE
S11306100196FFD2BE016F5F7F4FCE0181960E948B
S1130620BD13809104028F7D8635E1F5809105022A
S11306308F7D843409F0B2C0809106028F7D8634A8
S113064009F0ACC0809107028D3309F07EC288E0C6
S113065092E00E94AF136093190270931A02809380
S11306601B0290931C0285E0E9E3F1E0DE01919620
S113067001900D928A95E1F7809107028F3391F4EE
S11306804091190250911A0260911B0270911C0250
S1130690CE010196BED2BE016F5F7F4FCE0181961F
S11306A00E94BD1380910402982F9F7D903509F01C
S11306B075C0909105029F7D9C3409F04CC2209135
S11306C006022F7D2D3409F046C2209107022D33F6
S11306D001F520910802203361F41092220225E0F2
S11306E0EEE3F1E0DE01919601900D922A95E1F797
S11306F032C2213309F02FC221E02093220225E0E7
S1130700EEE3F1E0DE01919601900D922A95E1F776
S113071022C22F3309F01FC220912202213019F086
S1130720EDE1F1E002C0EBE1F1E0208131813AA397
S113073029A311C2809106028F7D883579F58091B5
S113074007028D33A9F488E092E00E94AF1360930E
S1130750230270932402809325029093260285E05D
S1130760E3E4F1E0DE01919601900D928A95E1F7C0
S1130770809107028F3391F4409123025091240217
S11307806091250270912602CE01019642D2BE01EB
S11307906F5F7F4FCE0181960E94BD13809104024A
S11307A0803511F08037C9F5809105028F7D8D3435
S11307B0A1F5809106028F7D8E3479F58091070230
S11307C08D33A9F488E092E00E94AF13609327026E
S11307D0709328028093290290932A0285E0E8E42A
S11307E0F1E0DE01919601900D928A95E1F78091F6
S11307F007028F3391F440912702509128026091AF
S1130800290270912A02CE01019603D2BE016F5FC4
S11308107F4FCE0181960E94BD13809104028F7D8B
S1130820823509F0A8C1809105028F7D8F3409F0CB
S11308309EC1809106028F7D863409F098C1809113
S113084007028D3309F08EC188E092E00E94AF1355
S113085060932B0270932C0280932D0290932E02AE
S113086085E0EDE4F1E0DE01919601900D928A9528
S1130870E1F7809107028F3391F440912B0250915C
S11308802C0260912D0270912E02CE010196C1D1ED
S1130890BE016F5F7F4FCE0181960E94BD13809190
S11308A004028F7D843409F041C0809105028F7D5C
S11308B0893409F079C0809106028F7D8E3409F065
S11308C073C0809107028D3301F580910802803353
S11308D061F410922F0285E0E2E5F1E0DE019196E9
S11308E001900D928A95E1F75FC0813309F05CC0F5
S11308F081E080932F0285E0E2E5F1E0DE0191964C
S113090001900D928A95E1F74FC08F3309F04CC0E6
S113091080912F02813019F0EDE1F1E002C0EBE1AA
S1130920F1E0808191819AA389A33EC08235E1F5EB
S1130930809105028F7D8035B9F5809106028F7D07
S11309408C3491F5809107028D33F9F4809108027B
S1130950803361F41092300285E0E2E5F1E0DE01DB
S1130960919601900D928A95E1F71EC08133E1F4CE
S113097081E08093300285E0E2E5F1E0DE019196CA
S113098001900D928A95E1F70FC08F3369F480913D
S11309902202813019F0EDE1F1E002C0EBE1F1E077
S11309A0808191819AA389A34CE150E060E170E0D9
S11309B085E192E00E94DB1780913502811197C096
S11309C0809103028F7D843509F091C080910402E7
S11309D0982F9F7D9335A9F5909105029D33C9F415
S11309E086E092E00E94AF1325D2813049F484E579
S11309F093E59AA389A38FE390E09CA38BA321C0E2
S1130A0084E593E59AA389A38DE390E09CA38BA34B
S1130A1018C09F3309F07EC01AD3AB01BC01CE01CC
S1130A200196F7D084E593E59AA389A38DE390E03A
S1130A309CA38BA3BE016F5F7F4FCE0181960E9462
S1130A40B21380910402803511F08037A1F58091B2
S1130A5005028D33C9F486E092E00E94AF138CD175
S1130A60813049F484E590E59AA389A38FE390E06B
S1130A709CA38BA320C084E590E59AA389A38DE36E
S1130A8090E09CA38BA317C08F33A9F4BED1AB0114
S1130A90BC01CE010196BDD084E590E59AA389A35B
S1130AA08DE390E09CA38BA3BE016F5F7F4FCE01CB
S1130AB081960E94B213809104028F7D883449F498
S1130AC021D184E598E49AA389A38DE390E09CA3C3
S1130AD08BA3809104028F7D8A3549F42BD184E560
S1130AE09AE59AA389A38DE390E09CA38BA3BE010E
S1130AF06F5D7F4FC80176D46DE0C80195D4109224
S1130B00100240C0853409F49ACC59CC803509F0E0
S1130B1049CEC5CE803509F098CFDBCF8091040251
S1130B208F7D833509F08BCC51CC80913502823096
S1130B3009F042CFB3CC8D3409F078CD3DCD80910E
S1130B4007028F3309F072CD5ACD809107028F339B
S1130B5009F024CE95CD9D34C9F6ECCD80910402E4
S1130B608F7DE4CE809107028F33C1F786CE8091CA
S1130B7004028F7DDBCE809104028F7D843409F0E2
S1130B8013CF93CEE0960FB6F894DEBF0FBECDBF61
S1130B90DF91CF911F910F910895292F3327223090
S1130BA0310559F02330310569F02130310521F543
S1130BB082E190E025E731E028C08EE390E027E36E
S1130BC031E023C099278130910551F018F0029744
S1130BD069F017C0E3E3F1E0849190E09F0115C050
S1130BE0E5E1F1E0849190E09F010FC0E7EEF0E0D1
S1130BF0849190E09F0109C080E090E020E030E023
S1130C0004C080E090E020E030E0FA0131832083EA
S1130C1008958F929F92AF92BF92CF92DF92EF92FC
S1130C20FF920F931F93CF93DF93182F092F6A011D
S1130C307B0120E030E0A901C701B6010E94B21196
S1130C40882364F020E030E0A901C701B6010E94C6
S1130C50B211882354F4C7E6D1E002C0C7E5D1E05D
S1130C60F7FAF094F7F8F09402C0C7E6D1E0C701B0
S1130C70B6010E941E124B015C01072E000C880B6A
S1130C80990B0E9451129B01AC01C701B6010E944D
S1130C904D1120E030E44CE156E40E9405130E941B
S1130CA068130E941E127F936F939F928F92DF931B
S1130CB0CF9389E591E09F938F930F931F930E94A5
S1130CC0C4138DB79EB70A960FB6F8949EBF0FBE95
S1130CD08DBFDF91CF911F910F91FF90EF90DF9027
S1130CE0CF90BF90AF909F908F90089534C0089597
S1130CF081E0809335022C9A2EC00895109235021B
S1130D002C98089581E080930102809311024CB1E4
S1130D108091300290E046FB222720F930E08217D0
S1130D20930721F082E080930202089581E080938A
S1130D30020208951092FA011092FB011092FC0134
S1130D401092FD011092310210923202109233027D
S1130D501092340208958091310290913202A09150
S1130D603302B09134028093FA019093FB01A09373
S1130D70FC01B093FD010895CF92DF92EF92FF92B0
S1130D806B017C01809122028823E1F0A701960186
S1130D906091230270912402809125029091260291
S1130DA00E94B21188234CF120912702309128022D
S1130DB04091290250912A02C701B6010E94B21142
S1130DC08823ECF081E08093010220911502309198
S1130DD016024091170250911802C701B6010E94F1
S1130DE005130E941E126093FA017093FB01809315
S1130DF0FC019093FD0180E003C081E001C081E02B
S1130E00FF90EF90DF90CF90089560913102709140
S1130E10320280913302909134020E945112209147
S1130E2015023091160240911702509118020C9449
S1130E30B61108958F929F92AF92BF92CF92DF9294
S1130E40EF92FF926B017C0120E030E0A9010E9447
S1130E50011318160CF0AEC020911E0230911F022F
S1130E604091200250912102C701B6010E94B211A3
S1130E7018162CF480911D02882309F49DC020913A
S1130E801502309116024091170250911802C701C1
S1130E90B6010E9405134B015C0120E030E045E7F8
S1130EA053E40E940113181654F481E08093120253
S1130EB081E090E090933B0280933A0245C020E0A9
S1130EC030E048EF51E4C501B4010E940113181643
S1130ED054F482E08093120288E090E090933B0205
S1130EE080933A0231C020E030E040E850E4C5018C
S1130EF0B4010E940113181654F483E08093120283
S1130F0080E490E090933B0280933A021DC020E07D
S1130F1030E040E85FE3C501B4010E9401131816F4
S1130F2054F484E08093120280E091E090933B02B9
S1130F3080933A0209C085E08093120280E094E035
S1130F4090933B0280933A0260913A0270913B0283
S1130F50072E000C880B990B0E9451122091150248
S1130F603091160240911702509118020E94051305
S1130F709B01AC0160E074E284E79BE40E94B6113B
S1130F80609336027093370280933802909339024B
S1130F90A70196010E94B6110E942312F8941092A0
S1130FA0850010928400709389006093880078947F
S1130FB080E003C081E001C081E0FF90EF90DF900A
S1130FC0CF90BF90AF909F908F9008954CE150E0E8
S1130FD060E170E085E192E00E94CB17109200027C
S1130FE010923C021092010210921102109202021D
S1130FF0109212021092FA011092FB011092FC015D
S11310001092FD01109231021092320210923302BA
S113101010923402269A259A249A6E982C98F89461
S11310201092800088E180938100109285001092D4
S1131030840082E080936F0078946091190270912B
S11310401A0280911B0290911C02F4CE08956091C3
S113105088007091890080E090E00E944F129B010B
S1131060AC01609136027091370280913802909100
S113107039020C94B6110895F894833019F12CF4C4
S1131080813041F0823091F041C0843039F18530B3
S113109089F13CC0E1E8F0E0808181608083808157
S11310A08D7F808380818B7F80833BC0E1E8F0E08B
S11310B080818E7F808380818260808380818B7F2A
S11310C080832FC0E1E8F0E08081816080838081AB
S11310D08260808380818B7F808323C0E1E8F0E09D
S11310E080818E7F808380818D7F808380818460F6
S11310F0808317C0E1E8F0E0808181608083808193
S11311008D7F80838081846080830BC0E1E8F0E080
S113111080818E7F808380818D7F808380818B7F9F
S11311208083789408958823A4F490910002911107
S113113035C010923C0280912F02882311F02D9A21
S113114001C02D988091120297DF81E08093000204
S113115008951816ACF49091000291111CC081E01E
S113116080933C0280912F02882311F02D9801C0B6
S11311702D9A8091120280DF81E08093000208950D
S113118081110FC080910002882359F080E074DF40
S1131190109200020895811104C0F8CF1816DCF3F0
S11311A0EFCF08950F931F93CF938C01C091020248
S11311B0C13021F0C23009F43CC04DC02CB1809143
S11311C0300290E026FB442740F950E0841795074D
S11311D069F180E0A8DF10920202E5E1F2E02081EB
S11311E031814281538166897789808D918D0E94F6
S11311F005130E941E126093310270933202809391
S11312003302909334021092FA011092FB0110926F
S1131210FC011092FD01611571058105910509F428
S11312203BC00CF0CFEF8C2F7EDF36C08FEF7BDF1F
S113123033C04CB18091300290E046FB222720F964
S113124030E08217930719F081E06DDF25C081E05B
S11312508093020221C04091310250913202609188
S11312603302709134028091FA019091FB01A091B4
S1131270FC01B091FD01481759076A077B0751F03B
S1131280481759076A077B0714F08FEF01C081E004
S11312904ADF02C080E047DF80910002811115C05F
S11312A080910102813089F410920102809111022F
S11312B0882339F01092110263E671E0C80192D0DC
S11312C004C068E671E0C8018DD0CF911F910F91E1
S11312D008951F920F920FB60F9211242F933F93EC
S11312E04F935F936F937F938F939F93AF93BF932A
S11312F0EF93FF9395B181E0892785B99BB180E293
S113130089278BB910928500109284002E9A4091FF
S11313103102509132026091330270913402809113
S1131320FA019091FB01A091FC01B091FD014817D5
S113133059076A077B0711F480E0F5DE80913C02CF
S1131340811104C08FEF9FEFDC0104C081E090E0C5
S1131350A0E0B0E04091310250913202609133023A
S113136070913402840F951FA61FB71F809331021A
S113137090933202A0933302B09334022E98FF91DB
S1131380EF91BF91AF919F918F917F916F915F91F9
S11313904F913F912F910F900FBE0F901F90189572
S11313A0CF93DF93EC01FC0170968BE0DF011D927B
S11313B08A95E9F782E08C83898783E08E8761E0F0
S11313C0CE0101964FD3882351F061E0CE010696F9
S11313D049D3882321F061E0CE010B9643D3DF91FA
S11313E0CF910895FC01909141029430C9F484890D
S11313F09589A689B789892B8A2B8B2B99F0CB01E8
S113140021812F702093E900FB0101900020E9F76E
S11314103197BF01681B790B40E050E058C1089533
S113142082E0089582E00895CF93FC0190914102F7
S11314309430E9F484899589A689B789892B8A2B04
S11314408B2BB9F0C62F81818F708093E900809136
S1131450E80085FD08C0E8EEF0E080818E778083A7
S113146074D3811107C0C093F10080E003C082E00F
S113147001C082E0CF910895FC0190914102943023
S113148029F584899589A689B789892B8A2B8B2B81
S1131490F9F081818F708093E9002091F3008091AD
S11314A0F20090E0922B892BA9F0E8EEF0E0908115
S11314B080818E77808395FD0FC047D381110DC045
S11314C0E8EEF0E090819E779083089582E008959D
S11314D082E0089580E0089580E00895FC019091F1
S11314E04102943091F484899589A689B789892B1E
S11314F08A2B8B2B51F081818F708093E90080912E
S1131500E80080FF02C0CF01B7CF089520914102C7
S1131510243079F5FC014489558966897789452BFE
S1131520462B472B49F186818F708093E900809187
S1131530E80082FF24C02091F3008091F20090E043
S1131540922B892B21F02091F10030E002C02FEF83
S11315503FEF4091F3008091F20090E0942B892BAF
S113156089F4E8EEF0E080818B778083822F932FDB
S113157008958FEF9FEF08958FEF9FEF08958FEFFA
S11315809FEF0895822F932F089508950895CF9380
S1131590DF93FC019091E80093FF96C0208130E036
S11315A080914602909147028217930709F08CC0FC
S11315B0EF0180914302813259F018F48032B9F17D
S11315C083C0823209F45FC0833209F46FC07CC0E7
S11315D080914202813A09F077C0E8EEF0E0808120
S11315E0877F8083808180FFFDCF8C899D89AE8930
S11315F0BF89E1EFF0E08083492F5A2F6B2F7727C3
S11316004083AD016627772740838B2F9927AA272C
S1131610BB278083888D8083898D80838A8D808396
S1131620E8EEF0E080818E7780836BD24DC08091AC
S11316304202813209F048C0E8EEF0E08081877F01
S1131640808305C080914102882309F43DC08081D4
S113165082FFF8CFE1EFF0E030812081908180813A
S11316603C8B2D8B9E8B8F8B8081888F8081898F83
S113167080818A8FE8EEF0E080818B77808341D28D
S1131680CE0183DF21C0809142028132E9F4E8EE89
S1131690F0E08081877F808334D2809144029091EE
S11316A04502998B888BCE01F7D50EC080914202FA
S11316B0813251F4E8EEF0E08081877F808321D28B
S11316C060914402CE0162DFDF91CF9108958F9241
S11316D09F92AF92BF92CF92DF92EF92FF920F93BD
S11316E01F93CF93DF938C01EB016A012ED28111FA
S11316F03DC0C114D10439F0F60180819181C81B29
S1131700D90B080F191F209781F1E12CF12C0F2E12
S1131710F8EE8F2E912CF02D0F2EF1EFAF2EB12C71
S1131720F02DF401808185FD13C080818E77808344
S1131730C114D10449F0F60180819181E80EF91EAB
S1131740F182E08285E012C000D2882351F00EC0FD
S1131750F80181918F01F50180832197FFEFEF1A42
S1131760FF0A2097F1F680E001C080E0DF91CF917D
S11317701F910F91FF90EF90DF90CF90BF90AF90AB
S11317809F908F900895CF92DF92FF920F931F93B3
S1131790CF93DF93209148023091490226173707EF
S11317A058F06115710539F4E8EEF0E020812E77E8
S11317B020839B0101C09B01A82FB92F10E0E8EE04
S11317C0F0E063EF70E042EF50E00F2EF1EFCF2E28
S11317D0D12CF02D01E0F12C30C0809141028823FE
S11317E009F442C0853009F441C0808183FD40C0C2
S11317F0808182FD32C0808180FF1FC0EB0118818F
S1131800EA01888190E0912B2115310579F0883027
S1131810910560F41D91E601188321503109019668
S11318202115310519F088309105A1F7102F08977B
S113183009F01F2D80818E7780832115310569F68B
S11318401111CBCF0AC080914102882399F08530D1
S113185099F0808183FF03C011C0E8EEF0E080813D
S113186082FFF1CF80E00BC082E009C083E007C0B3
S113187081E005C082E003C083E001C081E0DF9124
S1131880CF911F910F91FF90DF90CF900895CF9249
S1131890DF92FF920F931F93CF93DF93209148021F
S11318A0309149022617370758F06115710539F44C
S11318B0E8EEF0E020812E7720839B0101C09B019C
S11318C0E82FF92F10E0A8EEB0E063EF70E042EFEC
S11318D050E00F2EF1EFCF2ED12CF02D01E0F12CA2
S11318E031C080914102882309F443C0853009F452
S11318F042C08C9183FD41C08C9182FD33C08C9198
S113190080FF20C0EB011881EA01888190E0912BCF
S11319102115310581F08830910568F41491E601B0
S1131920188331962150310901962115310519F09A
S11319308830910599F7102F089709F01F2D8C9185
S11319408E778C932115310561F61111CACF0AC027
S113195080914102882399F0853099F0808183FF3A
S113196003C011C0E8EEF0E0808182FFF1CF80E097
S11319700BC082E009C083E007C081E005C082E0BB
S113198003C083E001C081E0DF91CF911F910F91EB
S1131990FF90DF90CF9008958F929F92BF92CF9245
S11319A0DF92EF92FF920F931F93CF93DF938730D1
S11319B070F126C0292F2F70E7012883891731F091
S11319C0E80178812081E401588103C0242F762F17
S11319D05B2D21FF12C03C913E7F3C9330813D7FC3
S11319E030833C9131603C93E80178832083E401A7
S11319F05883E6012881222344F49F5F9730D1F66F
S1131A008F708093E90081E021C080E01FC0982F8F
S1131A109F709093E900982F242F762F50E0ABEE1F
S1131A20B0E0EDEEF0E00CEE10E00F2EF0EF8F2EB4
S1131A30912CF02D0F2EFEEECF2ED12CF02D0F2E4B
S1131A40F9EEEF2EF12CF02DB12CC3CFDF91CF9115
S1131A501F910F91FF90EF90DF90CF90BF909F90D8
S1131A608F900895EF92FF920F931F93CF93DF937C
S1131A706623E9F1062FC82FD92F10E00F2EF6E0C8
S1131A80FF2EF02D6894EE24E1F85881552349F196
S1131A909C81E981FA816B81852F8F70873048F5AD
S1131AA0923010F44E2D01C04F2DE930F10550F065
S1131AB028E030E090E09F5F220F331F2E173F078E
S1131AC0D0F301C090E09295907F492B90E4699FF8
S1131AD0B0011124551F5527551F652B5DDF882341
S1131AE049F01F5F25960113D0CF81E003C081E048
S1131AF001C080E0DF91CF911F910F91FF90EF9093
S1131B00089580914202882344F0E8EEF0E014C086
S1131B1080914102811103C00895E8EEF0E08081D4
S1131B2082FFF6CFE8EEF0E080818B778083089522
S1131B3080914102882341F0808180FFF9CFE8EE53
S1131B40F0E080818E77808308950F931F93CF9365
S1131B50DF932091E4003091E50065E6ACEEB0E05F
S1131B60E8EEF0E00BEE10E044EE50E001C09C0122
S1131B709C91892F817090FD1DC020C080914102ED
S1131B80882381F0853081F0E801888185FD0EC0CD
S1131B90EA01888199812817390751F3615039F78F
S1131BA084E00FC082E00DC083E00BC081E009C077
S1131BB080E007C0808180FFE1CFFACF908192FF5F
S1131BC0DDCFDF91CF911F910F9108950F931F9354
S1131BD0CF93DF934CD053D0C8EDD0E088818F777A
S1131BE0888388818068888388818F7D888319BCF5
S1131BF01092410210923D0210923F0210923E0256
S1131C0000EE10E0F80180818B7F80838881816001
S1131C10888342E060E080E0BFDEE1EEF0E08081B6
S1131C208E7F8083E2EEF0E080818160808380811A
S1131C3088608083F80180818E7F808388818061C1
S1131C408883DF91CF911F910F910895E8EDF0E023
S1131C5080818F7E8083E7EDF0E0808181608083E6
S1131C6084E082BF81E080934002B0CF0895E8ED24
S1131C70F0E080818E7F80831092E20008951092BC
S1131C80DA001092E10008951F920F920FB60F929E
S1131C9011242F933F934F935F936F937F938F936D
S1131CA09F93AF93BF93EF93FF938091E10082FFE3
S1131CB00AC08091E20082FF06C0E1EEF0E080817C
S1131CC08B7F80836FD28091DA0080FF1DC080916A
S1131CD0D80080FF19C0EAEDF0E080818E7F808318
S1131CE08091D90080FF0CC080E189BD82E189BD6B
S1131CF009B400FEFDCF81E080934102C3D204C049
S1131D0019BC10924102BFD28091E10080FF16C03D
S1131D108091E20080FF12C0E2EEF0E080818E7FCD
S1131D208083808180618083E8EDF0E0808180623F
S1131D30808319BC85E08093410234D28091E10014
S1131D4084FF2FC08091E20084FF2BC080E189BD15
S1131D5082E189BD09B400FEFDCFE8EDF0E08081A9
S1131D608F7D8083E1EEF0E080818F7E8083E2EEE0
S1131D70F0E080818F7E8083808181608083809188
S1131D803D02882321F084E08093410209C08091C0
S1131D90E300882314F081E001C083E080934102D2
S1131DA001D28091E10083FF23C08091E20083FF90
S1131DB01FC0E1EEF0E08081877F808382E0809322
S1131DC0410210923D0280818E7F8083E2EEF0E03A
S1131DD080818E7F808380818061808342E060E0A7
S1131DE080E0DADDE0EFF0E0808188608083DAD1A2
S1131DF0FF91EF91BF91AF919F918F917F916F91DF
S1131E005F914F913F912F910F900FBE0F901F90B4
S1131E1018951F920F920FB60F921124EF92FF9212
S1131E200F931F932F933F934F935F936F937F93DE
S1131E308F939F93AF93BF93CF93DF93EF93FF93CE
S1131E40C091E900CF708091EC00D82FD17080FD53
S1131E50D0E80F2EF9EEEF2EF12CF02DF7011082C1
S1131E6000EF10E0F8018081877F8083789421D08F
S1131E70F7011082F801808188608083CD2BCF70B8
S1131E80F701C083FF91EF91DF91CF91BF91AF91A3
S1131E909F918F917F916F915F914F913F912F917E
S1131EA01F910F91FF90EF900F900FBE0F901F9016
S1131EB018950F931F93CF93DF93CDB7DEB7AA97EF
S1131EC00FB6F894DEBF0FBECDBFE2E4F2E02AE421
S1131ED032E0A1EFB0E08C9181932E173F07D9F740
S1131EE0D7D18091E80083FF38C1E2E4F2E0908129
S1131EF08181853009F47FC030F48130C9F168F004
S1131F008330B1F12AC1883009F4F2C0893009F470
S1131F10FFC0863009F021C191C0903821F0923879
S1131F2009F01BC108C080913E0290913F029923A1
S1131F3089F082600FC0809146028F70873008F06C
S1131F400CC1E9EEF0E080838091EB0085FB8827EB
S1131F5080F91082E8EEF0E09081977F9083A1EF02
S1131F60B0E08C931C9280818E778083CADDF5C0AB
S1131F70992309F401C1923009F0EFC002C191E044
S1131F80833009F090E090933F022CC08091460288
S1131F908F709FEF980F963008F0DFC08093E900B0
S1131FA09091EB0090FF1EC090914302933031F466
S1131FB0EBEEF0E080818062808314C0EBEEF0E011
S1131FC090819061908321E030E0A90102C0440F28
S1131FD0551F8A95E2F7AAEEB0E04C931C928081DB
S1131FE0886080831092E900E8EEF0E08081877FCA
S1131FF0808387DDB2C09111B0C0109144021F7775
S1132000E3EEF0E080818078812B8083E8EEF0E0DD
S11320108081877F808375DDE8EEF0E0808180FF3A
S1132020FDCFE3EEF0E0808180688083111102C06F
S113203082E001C083E0809341028FC090589230C7
S113204008F08BC080914402909145028C3D53E08E
S1132050950799F583E08A838AE289835FB7F894C8
S1132060DE01139620E03EE041E2E32FF0E04093EE
S11320705700849120FF03C082958F703F5F8F705B
S11320808A3018F090E0C79602C090E0C0968D9315
S11320909D932F5F243149F75FBF08EE10E0F801EC
S11320A08081877F80836AE270E0CE0101966BDBDA
S11320B0F80180818B77808350C0609146027091D3
S11320C04702AE014F5F5F4F0E94CD05BC01892BD3
S11320D009F443C008EE10E0F8019081977F9083E3
S11320E089819A81D4DBF80180818B77808335C024
S11320F0903899F5E8EEF0E08081877F80838091C5
S11321003D028093F10080818E778083FADC25C0C4
S1132110911123C08091440290914502992702971E
S1132120E4F4E8EEF0E08081877F808380914402CC
S113213080933D02E6DC80913D02882321F084E017
S11321408093410209C08091E300882314F081E068
S113215001C084E08093410297D08091E80083FF1E
S113216016C0E8EEF0E08081877F8083EBEEF0E03C
S11321708081806280830BC090914402913069F722
S1132180FECE80914402882309F400CF2BCFAA9677
S11321900FB6F894DEBF0FBECDBFDF91CF911F9174
S11321A00F9108950895CF9380914102882399F067
S11321B0C091E900CF708091EC00982F917080FD60
S11321C090E8C92B1092E9008091E80083FD71DE4C
S11321D0CF70C093E900CF9108951092FF0110923F
S11321E0FE011092350284B7877F84BF0FB6F8943E
S11321F0A8958091600088618093600010926000CF
S11322000FBE90E080E80FB6F8948093610090933D
S113221061000FBE1BDD7894209A559A289A5D9828
S1132220EEEEF1E02FB7F8948EE691E0918380838F
S113223093838283958384838EEE91E09783868350
S113224080E890E091878087138612862FBF0E94D2
S1132250E60780E091E00E94D2086EEE71E080E033
S113226091E00E94E2006EEE71E080E091E00E9455
S1132270110180E091E00E94710180E091E02ED98B
S113228092DFE7CF0895089580E091E089C808952A
S113229080E091E07CC9089508955058BB27AA278F
S11322A00ED075C166D130F06BD120F031F49F3F70
S11322B011F41EF45BC10EF4E095E7FB51C1E92F64
S11322C077D180F3BA17620773078407950718F06C
S11322D071F49EF58FC10EF4E0950B2EBA2FA02D4C
S11322E00B01B90190010C01CA01A0011124FF27BF
S11322F0591B99F0593F50F4503E68F11A16F040BA
S1132300A22F232F342F4427585FF3CF46953795B8
S11323102795A795F0405395C9F77EF41F16BA0B7D
S1132320620B730B840BBAF09150A1F0FF0FBB1F2B
S1132330661F771F881FC2F70EC0BA0F621F731F74
S1132340841F48F4879577956795B795F7959E3FD1
S113235008F0B3CF9395880F08F09927EE0F97955F
S113236087950895D9D008F481E008950CD00FC161
S113237007D140F0FED030F021F45F3F19F0F0C0F7
S1132380511139C1F3C014D198F39923C9F35523DA
S1132390B1F3951B550BBB27AA2762177307840754
S11323A038F09F5F5F4F220F331F441FAA1FA9F30A
S11323B033D00E2E3AF0E0E830D091505040E695FC
S11323C0001CCAF729D0FE2F27D0660F771F881F5D
S11323D0BB1F261737074807AB07B0E809F0BB0B4C
S11323E0802DBF01FF2793585F4F2AF09E3F510570
S11323F068F0B6C000C15F3FECF3983EDCF386950D
S113240077956795B795F7959F5FC9F7880F911DE5
S11324109695879597F90895E1E0660F771F881FD1
S1132420BB1F621773078407BA0720F0621B730B84
S1132430840BBA0BEE1F88F7E095089504D06894D6
S1132440B111D9C00895BCD088F09F5790F0B92F2E
S11324509927B751A0F0D1F0660F771F881F991FF5
S11324601AF0BA95C9F712C0B13081F0C3D0B1E007
S11324700895C0C0672F782F8827B85F39F0B93F17
S1132480CCF3869577956795B395D9F73EF49095F7
S11324908095709561957F4F8F4F9F4F0895E89475
S11324A009C097FB3EF490958095709561957F4F98
S11324B08F4F9F4F9923A9F0F92F96E9BB27939546
S11324C0F695879577956795B795F111F8CFFAF456
S11324D0BB0F11F460FF1BC06F5F7F4F8F4F9F4F87
S11324E016C0882311F096E911C0772321F09EE8E5
S11324F0872F762F05C0662371F096E8862F70E04B
S113250060E02AF09A95660F771F881FDAF7880F24
S11325109695879597F90895990F0008550FAA0B7A
S1132520E0E8FEEF16161706E807F907C0F01216E2
S11325301306E407F50798F0621B730B840B950BE5
S113254039F40A2661F0232B242B252B21F408953A
S11325500A2609F4A140A6958FEF811D811D0895D7
S113256097F99F6780E870E060E008959FEF80EC42
S1132570089500240A9416161706180609060895E5
S113258000240A9412161306140605060895092E4B
S11325900394000C11F4882352F0BB0F40F4BF2BBA
S11325A011F460FF04C06F5F7F4F8F4F9F4F0895FA
S11325B057FD9058440F551F59F05F3F71F04795F0
S11325C0880F97FB991F61F09F3F79F087950895D5
S11325D0121613061406551FF2CF4695F1DF08C0F4
S11325E0161617061806991FF1CF86957105610511
S11325F008940895E894BB2766277727CB0197F9B9
S113260008958ADF08F48FEF08950BD0C0CFB1DFAF
S113261028F0B6DF18F0952309F0A2CFA7CF112434
S1132620EACFC6DFA0F3959FD1F3950F50E0551F75
S1132630629FF001729FBB27F00DB11D639FAA2713
S1132640F00DB11DAA1F649F6627B00DA11D661F62
S1132650829F2227B00DA11D621F739FB00DA11D83
S1132660621F839FA00D611D221F749F3327A00D3D
S1132670611D231F849F600D211D822F762F6A2FD9
S113268011249F5750408AF0E1F088234AF0EE0F5E
S1132690FF1FBB1F661F771F881F91505040A9F76B
S11326A09E3F510570F05CCFA6CF5F3FECF3983EA0
S11326B0DCF3869577956795B795F795E7959F5FD2
S11326C0C1F7FE2B880F911D9695879597F908956C
S11326D02FD020F09F3708F48ECF01C01BC0882371
S11326E071F4772321F09850872B762F07C0662347
S11326F011F499270DC09051862B70E060E02AF008
S11327009A95660F771F881FDAF7880F9695879535
S113271097F908959F3F31F0915020F4879577956C
S11327206795B795880F911D9695879597F90895A4
S113273047DFA0F0BEE7B91788F4BB279F3860F4E1
S11327401616B11D672F782F8827985FF7CF8695C7
S113275077956795B11D93959639C8F308956627C3
S1132760772703C2FB01DC010D900020E9F71197E4
S113277001900D920020E1F70895FB01DC01019026
S11327800D920020E1F70895AEE0B0E0E9ECF3E14A
S11327904BC40D891E8986E08C831A8309838FEFCD
S11327A09FE79E838D83AE01475E5F4F6F89788D6F
S11327B0CE01019608D0EF81F885E00FF11F108259
S11327C02E96E4E04DC4ABE0B0E0E8EEF3E11EC4C5
S11327D06C017B018A01FC0117821682838181FFCF
S11327E0BFC1CE0101963C01F6019381F70193FD2F
S11327F0859193FF81917F01882309F4ADC18532CE
S113280039F493FD859193FF81917F01853221F401
S1132810B60190E023D3E8CF912C212C312CFFE199
S1132820F315D8F08B3279F038F4803279F08332B2
S1132830A1F4232D20611DC08D3261F0803369F431
S1132840232D216016C0832D8260382EE32DE46091
S11328503E2E2AC0F32DF8601DC037FC2DC020ED9C
S1132860280F2A3040F08E32B9F436FC75C1232D7E
S11328702064322E19C036FE06C08AE0989E200DD0
S11328801124922E11C0EAE02E9E200D1124222E36
S1132890F32DF0623F2E08C08C3621F4832D80681E
S11328A0382E02C0883641F4F70193FD859193FFD9
S11328B081917F018111B3CF982F9F7D95549330DF
S11328C028F40C5F1F4F9FE399830DC0833631F0CA
S11328D0833771F0833509F055C020C0F801808139
S11328E089830E5F1F4F88248394912C530112C057
S11328F02801F2E04F0E511CF801A080B18036FE91
S113290003C0692D70E002C06FEF7FEFC5019BD259
S11329104C018201F32DFF773F2E15C0280122E0E0
S1132920420E511CF801A080B18036FE03C0692D0F
S113293070E002C06FEF7FEFC5017AD24C01F32D36
S1132940F0683F2E820133FC19C0822D90E0881676
S11329509906A0F4B60180E290E080D22A94F5CFE3
S1132960F50137FC859137FE81915F01B60190E056
S113297075D221102A9421E0821A910881149104BD
S113298079F7E1C0843611F0893639F5F80137FE5C
S113299007C060817181828193810C5F1F4F08C0E1
S11329A060817181072E000C880B990B0E5F1F4FFD
S11329B0F32DFF763F2E97FF09C090958095709573
S11329C061957F4F8F4F9F4FF0683F2E2AE030E094
S11329D0A30180D2882E861844C0853731F4232D74
S11329E02F7EB22E2AE030E025C0932D997FB92E98
S11329F08F36C1F018F4883579F0AEC0803719F0FD
S1132A00883721F0A9C0E92FE061BE2EB4FE0DC0C5
S1132A10FB2DF460BF2E09C034FE0AC0292F2660A6
S1132A20B22E06C028E030E005C020E130E002C04C
S1132A3020E132E0F801B7FE07C060817181828134
S1132A4093810C5F1F4F06C06081718180E090E02C
S1132A500E5F1F4FA3013ED2882E8618FB2DFF77F1
S1132A603F2E36FE0DC0232D2E7FA22E891458F43E
S1132A7034FE0BC032FC09C0832D8E7EA82E05C007
S1132A80B82CA32C03C0B82C01C0B92CA4FE0FC0D1
S1132A90FE01E80DF11D8081803321F49A2D997E89
S1132AA0A92E09C0A2FE06C0B394B39404C08A2D13
S1132AB0867809F0B394A3FC10C0A0FE06C0B2143B
S1132AC080F4280C922C9B180DC0B21458F4B60153
S1132AD080E290E0C3D1B394F8CFB21418F42B1869
S1132AE002C0982C212CA4FE0FC0B60180E390E014
S1132AF0B5D1A2FE16C0A1FC03C088E790E002C0D5
S1132B0088E590E0B6010CC08A2D867851F0A1FECC
S1132B1002C08BE201C080E2A7FC8DE2B60190E026
S1132B209DD1891430F4B60180E390E097D19A9452
S1132B30F8CF8A94F301E80DF11D8081B60190E08D
S1132B408DD18110F6CF222009F44ECEB60180E259
S1132B5090E084D12A94F7CFF6018681978102C050
S1132B608FEF9FEF2B96E2E16DC2A0E0B0E0EAEBBD
S1132B70F5E152C2EC016B016115710519F0FB011D
S1132B80918380837E01FFEFEF1AFF0A0881802F73
S1132B9090E02ED1892B11F0E701F4CF0D3239F4F6
S1132BA07E0182E0E80EF11C098111E008C00B32BD
S1132BB029F47E0192E0E90EF11C098110E0E7019D
S1132BC0219743E050E064EB70E0CE0119D1892BEA
S1132BD0B9F4239645E050E06FEA70E0CE0110D1DD
S1132BE0892B09F42596C114D10419F0F601D18377
S1132BF0C0831111F0C060E070E080E89FE7F4C08A
S1132C0043E050E06CEA70E0CE01FAD0892B59F42D
S1132C10C114D10409F4E4C0F2E0EF0EF11CF60192
S1132C20F182E082DDC020E030E0A901C0E0D0E024
S1132C30F70180EDA82EA00E89E08A1528F1912FC6
S1132C409260B92E812F887012FF04C0811123C0B5
S1132C50219621C081112197A5E0B0E0CDD1DC01FE
S1132C60CB01880F991FAA1FBB1F9C01AD012A0D20
S1132C70311D411D511D283989E93807480789E16B
S1132C80580748F0166006C09EEFA9120AC013FD4B
S1132C9040C01860B12E8FEFE81AF80A00811B2D8E
S1132CA0C7CF802F8F7D8534A1F580818D3211F4BB
S1132CB0106106C08B3221F0319661E070E004C0EF
S1132CC08181329662E070E080538A3018F0E61B0E
S1132CD0F70B1FC060E070E060389CE079075CF49B
S1132CE0DB01AA0FBB1FAA0FBB1F6A0F7B1F660F56
S1132CF0771F680F711D3196DF0111978C918053F6
S1132D008A3050F314FF03C0719561957109C60FA1
S1132D10D71F11FF08C0C114D10429F0CF010197B6
S1132D20F60191838083CA01B901B9DB212F237095
S1132D30233019F04B015C0106C04B015C01B7FA6A
S1132D40B094B7F8B09420E030E0A901C501B40113
S1132D5009DB882309F43CC0D7FF06C0D195C1958F
S1132D60D1090BEC10E002C003EE10E06801F8E1B9
S1132D70CF1AD10890E2E92EF12CCE15DF056CF0C4
S1132D80F8012591359145915491C501B4013DDC7B
S1132D904B015C01CE19DF09F0CF04501109F59401
S1132DA0E7940C151D0549F78A2D880F8B2D881F74
S1132DB08F3F41F020E030E0A901C501B401D2DA2F
S1132DC0811106C082E290E090934B0280934A0204
S1132DD0C501B40109C060E070E080E89FEF04C061
S1132DE060E070E080EC9FE7CDB7DEB7ECE030C187
S1132DF09111CEC0803219F089508550D0F70895D2
S1132E00FB01DC014150504088F08D9181341CF06D
S1132E108B350CF4805E659161341CF06B350CF4D9
S1132E20605E861B611171F3990B0895881BFCCFBA
S1132E30FC010590615070400110D8F78095909581
S1132E408E0F9F1F0895FC01615070400190011086
S1132E50D8F7809590958E0F9F1F08950F931F9319
S1132E60CF93DF93FB01238121FD03C08FEF9FEFFD
S1132E702CC022FF16C04681578124813581421718
S1132E80530744F4A081B1819D012F5F3F4F3183EB
S1132E9020838C93268137812F5F3F4F378326838E
S1132EA014C08B01EC01FB010084F185E02D099530
S1132EB0892BE1F6D80116968D919C91179701966E
S1132EC017969C938E931697CE01DF91CF911F9105
S1132ED00F910895FA01AA27283051F1203181F188
S1132EE0E8946F936E7F6E5F7F4F8F4F9F4FAF4F0E
S1132EF0B1E03ED0B4E03CD0670F781F891F9A1F21
S1132F00A11D680F791F8A1F911DA11D6A0F711DD4
S1132F10811D911DA11D20D009F468943F912AE0E0
S1132F20269F11243019305D3193DEF6CF010895C8
S1132F30462F4770405D4193B3E00FD0C9F7F6CFF9
S1132F40462F4F70405D4A3318F0495D31FD4052C1
S1132F50419302D0A9F7EACFB4E0A6959795879557
S1132F6077956795BA95C9F7009761057105089536
S1132F709B01AC010A2E06945795479537952795E2
S1132F80BA95C9F7620F731F841F951FA01D08957A
S1132F90992788270895DC01CB01FC01F999FECF1C
S1132FA006C0F2BDE1BDF89A319600B40D924150CD
S1132FB05040B8F70895DC01A40FB51F41505040AC
S1132FC040F0CB01840F951F2E9105D04150504005
S1132FD0D8F70895262FF999FECF92BD81BDF89AAE
S1132FE0019700B4021639F01FBA20BD0FB6F89449
S1132FF0FA9AF99A0FBE089540D0A59F900DB49FF8
S1133000900DA49F800D911D112408952F923F923D
S11330104F925F926F927F928F929F92AF92BF92E4
S1133020CF92DF92EF92FF920F931F93CF93DF9390
S1133030CDB7DEB7CA1BDB0B0FB6F894DEBF0FBEED
S1133040CDBF09942A88398848885F846E847D843A
S11330508C849B84AA84B984C884DF80EE80FD803C
S11330600C811B81AA81B981CE0FD11D0FB6F894B2
S1133070DEBF0FBECDBFED010895A29FB001B39F87
S1133080C001A39F700D811D1124911DB29F700D6D
S10F3090811D1124911D0895F894FFCFB8
S113309C00831000000104100000018208000001EC
S11330AC000000000000000000000031003000505F
S11330BC4152414D0045584954005350553D00561A
S11330CC4C4D3D00564D583D005644463D00504C29
S11330DC4D3D00504D583D00504D4E3D00524F4615
S11330EC3D0044494E3D002D00257325642E2530AA
S11130FC3464005448210D005450210D00008E
S9030000FC
