S01D00004475616C53746570706572436F6E74726F6C6C65722E737265637A
S1130000C3C00000DEC00000DCC00000DAC0000095
S1130010D8C00000D6C00000D4C00000D2C0000088
S1130020D0C00000CEC000000C9484100C944F117A
S1130030C8C00000C6C00000C4C00000C2C00000A8
S1130040C0C000000C940809BCC00000BAC0000085
S1130050B8C00000B6C00000B4C00000B2C00000C8
S1130060B0C00000AEC00000ACC00000AAC00000D8
S1130070A8C00000A6C00000A4C00000A2C00000E8
S11300800C94610C9EC000009CC000009AC000004B
S113009098C0000096C0000094C0000092C0000008
S11300A090C000008EC000008CC000004E414E493C
S11300B04E495459494E46CDCCCC3D0AD7233C1722
S11300C0B7D13877CC2B329595E6241FB14F0A006F
S11300D00020410000C84200401C4620BCBE4CCA5F
S11300E01B0E5AAEC59D742C034400750061006C50
S11300F000530074006500700070006500720043D6
S1130100006F006E00740072006F006C006C00657C
S113011000720000001C034D006900630068006168
S11301200065006C0020004C006F006F00730065D8
S11301300000000403090409023E00020100C03269
S11301400904000001020201000524001001042436
S113015002060524060001070582030800FF0904BE
S11301600100020A0000000705040210000507054B
S1130170830210000512011001020000082910A1D9
S11301804201000102DC010011241FBECFEFDAE0BE
S1130190DEBFCDBF11E0A0E0B1E0E6EEF4E302C0C3
S11301A005900D92A23AB107D9F722E0A2EAB1E094
S11301B001C01D92AE3AB207E1F70E940F130C94EE
S11301C0711A1ECFCF93DF93FB014FB7F8942285AA
S11301D033854FBF4085518542175307F9F0EB0132
S11301E00E94740D97FD1AC0FE01A081B1818C9309
S11301F08081918101969183808326813781821742
S1130200930721F484819581918380832FB7F89497
S1130210828593850196938782872FBFDF91CF9143
S113022008952FB7F894DB011A968D919C911B9732
S11302302FBF009709F451C02091490221110EC02B
S1130240E8E3F2E02DE0DF011D922A95E9F7F0934F
S11302506902E093680221E0209349022091490257
S11302602130D9F5FB01A281B3812D91B383A283FF
S113027046815781A417B50721F4448155815383DE
S113028042833FB7F89442855385415051095387BF
S113029042873FBFE0916802F09169022A30A1F0E1
S11302A02D3091F00197AF01485352404C30510525
S11302B05CF4AF014F5F5F4F509369024093680253
S11302C02083009779F60895E853F2401E161F061E
S11302D024F482E080934902089508954F925F9236
S11302E06F927F928F929F92AF92BF92CF92DF9242
S11302F0EF92FF920F931F93CF93DF93CDB7DEB7A7
S1130300E2970FB6F894DEBF0FBECDBF8C0180918B
S11303104902823009F0D6C38FE390E09AA389A3FF
S1130320FE01B3968EE0DF011D928A95E9F7909164
S113033038029F7D9235A9F4209139022F7D23350F
S113034081F420913A022F7D243559F498E088E114
S11303500FB6F894A895809360000FBE9093600048
S1130360FFCF80919202813009F47AC3983489F4E2
S1130370809139028F7D8C3461F480913A028F7DB3
S1130380843539F447D46FE171E0CE0181960E943F
S1130390E215809138028F7D853489F48091390289
S11303A08F7D833561F480913A028F7D843539F4F1
S11303B033D463E271E0CE0181960E94E21580910C
S11303C038028F7D8035F1F4809139028F7D81343C
S11303D0C9F480913A028F7D8235A1F480913B0269
S11303E08F7D813479F480913C028F7D8D3451F47A
S11303F011D482E08093920267E271E0CE0181968B
S11304000E94E21580919202823009F026C2809106
S113041038028F7D8534C1F4809139028F7D88350F
S113042099F480913A028F7D893471F480913B0272
S11304308F7D843549F4EED3109292026DE271E01F
S1130440CE0181960E94E215809138028F7D81341D
S113045059F0823409F001C230E2C32ED12C4BE4AE
S1130460E42E42E0F42E06C0C12CD12C2EE6E22E5E
S113047022E0F22E809139028F7D833581F58091BF
S11304803A028F7D803559F580913B028F7D853509
S113049031F580913C028D3379F48DE392E00E9432
S11304A0D415F701608371838283938362E371E0DF
S11304B0CE0181960E94E21580913C028F3379F43B
S11304C0D7014D915D916D917C91CE01019641D3FF
S11304D0BE016F5F7F4FCE0181960E94E21580912D
S11304E039028F7D863509F092C080913A028F7D62
S11304F08C3439F580913B028F7D8D3409F050C0E6
S113050080913C028D3389F480913D02803319F44B
S1130510F701108607C0813309F042C081E0D7019A
S113052018968C9367E371E037C08F33C9F5F701F0
S11305308085813019F46BE171E02EC06DE171E0CA
S11305402BC08D3469F580913B028F7D883541F550
S113055080913C028D3389F48DE392E00E94D4159E
S1130560D70119966D937D938D939C931C976CE39F
S113057071E0CE0181960E94E21580913C028F3396
S113058079F4F7014185528563857485CE0101961E
S1130590E0D2BE016F5F7F4FCE0181960E94E215CB
S11305A0809139028F7D863591F580913A028F7D55
S11305B0843469F580913B028F7D863441F58091C6
S11305C03C028D3389F48DE392E00E94D415D70167
S11305D014966D937D938D939C93179761E471E0CA
S11305E0CE0181960E94E21580913C028F3379F40A
S11305F0F7014481558166817781CE010196A9D2A4
S1130600BE016F5F7F4FCE0181960E94E2158091FB
S113061039028F7D803509F095C080913A028F7D33
S11306208C3441F580913B028F7D8D3409F051C0AB
S113063080913C028D3389F480913D02803321F412
S1130640D7011D961C9206C0813309F042C081E097
S1130650F701858766E471E038C08F33D1F5D7019F
S11306601D968C91813019F46BE171E02EC06DE11F
S113067071E02BC08D3469F580913B028F7D883504
S113068041F580913C028D3379F48DE392E00E9430
S1130690D415F70166877787808B918B6BE471E0C3
S11306A0CE0181960E94E21580913C028F3389F439
S11306B0D7011E964D915D916D917C915197CE011C
S11306C0019647D2BE016F5F7F4FCE0181960E9493
S11306D0E215809139028F7D8035A1F580913A022F
S11306E08F7D8D3409F068C080913B028F7D8E34FC
S11306F009F062C080913C028D3379F48DE392E07D
S11307000E94D415F701628B738B848B958B60E503
S113071071E0CE0181960E94E21580913C028F33F4
S113072089F4D70152964D915D916D917C915597C5
S1130730CE0101960ED2BE016F5F7F4FCE0181962E
S11307400E94E21580913902982F9F7D9235A1F580
S113075090913A029F7D9F3409F057C090913B02DB
S11307609F7D963409F051C080913C028D3379F419
S11307708DE392E00E94D415F701668B778B808F0E
S1130780918F65E571E0CE0181960E94E21580911A
S11307903C028F3389F4D70156964D915D916D914A
S11307A07C915997CE010196D4D1BE016F5F7F4FE2
S11307B0CE0181960E94E215809139028F7D8434A6
S11307C029F580913A028F7D893409F040C08091E7
S11307D03B028F7D8E34D9F580913C028D3381F4B8
S11307E080913D02803319F4F701128E06C08133E3
S11307F071F581E0D7015A968C936AE571E023C0C4
S11308008F3329F5F701828D17C08F7D8235F9F476
S113081080913A028F7D8035D1F480913B028F7DA7
S11308208C34A9F480913C028D3309F43AC18F339E
S113083071F4D7015B968C91813019F46BE171E00E
S113084002C06DE171E0CE0181960E94E2154CE197
S113085050E0B601C7010E94001A809192028111F2
S113086015C1809138028F7D813421F1823409F0E1
S11308700DC166E671E0CE01C1960E94E215EDEF6E
S1130880FAE08FEF882E89E0982E9BEEC92E99E02E
S1130890D92E24EAA22E29E0B22E31E9632E39E0C2
S11308A0732E40E8442E49E0542E57E6E52E59E0D5
S11308B0F52E20C064E671E0CE01C1960E94E215D7
S11308C0EAEAF7E06CEA862E66E0962E78E9C72E0F
S11308D076E0D72EA1E5AA2EA6E0BA2EBEE36B2EB3
S11308E0B6E07B2E8DE2482E86E0582E97E1E92E65
S11308F096E0F92E809139028F7D8335C9F5809178
S11309003A028D33C9F48BE392E00E94D415F401CA
S11309100995BE016F5C7F4F813039F4CE01819619
S11309200E94E21568E671E01FC0CE0181960E9424
S1130930E2156BE671E018C08F33D1F40995AB0171
S1130940BC01CE01019605D1BE016F5C7F4FCE0183
S113095081960E94E2156BE671E0CE0181960E94B9
S1130960D715BE016F5F7F4FCE0181960E94D715C8
S1130970809139028F7D8035B1F580913A028D33B3
S1130980A9F4BE016F5C7F4FCE0181960E94E215EF
S11309908BE392E00E94D415F5010995813019F496
S11309A06EE671E01CC061E771E019C08F33D9F4C1
S11309B0F6010995AB01BC01CE010196CAD0BE0176
S11309C06F5C7F4FCE0181960E94E21561E771E072
S11309D0CE0181960E94D715BE016F5F7F4FCE0175
S11309E081960E94D715809139028F7D823579F4E2
S11309F0F7010995BE016F5C7F4FCE0181960E947D
S1130A00E21564E771E0CE0181960E94D7158091CA
S1130A1039028F7D883479F4F3010995BE016F5C46
S1130A207F4FCE0181960E94E21567E771E0CE0107
S1130A3081960E94D715809139028F7D8A3531F5D0
S1130A40F2010995BE016F5C7F4FCE0181960E9431
S1130A50E2156AE771E0CE0181960E94D71516C0AF
S1130A60953471F4809139028F7D833549F48091F6
S1130A703A028F7D823521F4D5D06DE771E002C052
S1130A8063E271E0CE0181960E94E215BE016F5DC2
S1130A907F4FC8019AD76DE0C801B7D710924902B9
S1130AA011C080913D02803321F4D7015B961C92E2
S1130AB006C0813309F0CBCE81E0F701838F6FE567
S1130AC071E0C1CEE2960FB6F894DEBF0FBECDBF83
S1130AD0DF91CF911F910F91FF90EF90DF90CF9016
S1130AE0BF90AF909F908F907F906F905F904F904A
S1130AF00895292F33272230310559F02330310549
S1130B0069F021303105E9F482E190E025E731E034
S1130B101CC08EE390E027E331E017C099278130B1
S1130B20910549F028F0029761F4E7EEF0E005C082
S1130B30E3E3F1E002C0E5E1F1E0849190E09F019C
S1130B4004C080E090E020E030E0FA0131832083AB
S1130B5008958F929F92AF92BF92CF92DF92EF92BD
S1130B60FF920F931F93CF93DF93182F092F6A01DE
S1130B707B0120E030E0A901C701B6010E94D71330
S1130B8087FD03C0C6E9D1E006C0C1E8D1E0F7FAA9
S1130B90F094F7F8F094C701B6010E9443144B0196
S1130BA05C01072E000C880B990B0E9476149B01A4
S1130BB0AC01C701B6010E94721320E030E44CE19D
S1130BC056E40E942A150E948D150E9443147F93B7
S1130BD06F939F928F92DF93CF9383E891E09F93DB
S1130BE08F930F931F930E94E9158DB79EB70A96B2
S1130BF00FB6F8949EBF0FBE8DBFDF91CF911F91AA
S1130C000F91FF90EF90DF90CF90BF90AF909F90A7
S1130C108F90089533D085C381E0809392022C9AFB
S1130C202F9AF8CF109292022C982F98089581E071
S1130C308093350280934A024CB18091890290E0FE
S1130C4046FB222720F930E08217930711F083E056
S1130C5001C082E080933602089510922E02109211
S1130C602F02109230021092310210928D021092D3
S1130C708E0210928F021092900208951092360202
S1130C8080918D0290918E02A0918F02B09190027A
S1130C9080932E0290932F02A0933002B0933102DE
S1130CA00895CF92DF92EF92FF926B017C018091C5
S1130CB07B028823E1F0A701960160917C02709188
S1130CC07D0280917E0290917F020E94D71387FD5E
S1130CD029C020918002309181024091820250917A
S1130CE08302C701B6010E94D71387FD1BC081E0B0
S1130CF08093350220916E0230916F024091700210
S1130D0050917102C701B6010E942A150E94431432
S1130D1060932E0270932F028093300290933102DD
S1130D2080E001C081E0FF90EF90DF90CF900895C4
S1130D3060918D0270918E0280918F029091900249
S1130D400E94761420916E0230916F0240917002DD
S1130D50509171020C94DB134F925F926F927F92C9
S1130D608F929F92AF92BF92CF92DF92EF92FF92B7
S1130D706B017C0120E030E0A9010E9426151816C1
S1130D800CF098C02091770230917802409179025A
S1130D9050917A02C701B6010E94D71318162CF499
S1130DA080917602882309F485C080906E02909029
S1130DB06F02A0907002B0907102A5019401C70166
S1130DC0B6010E942A152B013C0120E030E045E7E2
S1130DD053E40E94261518161CF481E090E01CC010
S1130DE020E030E048EF51E4C301B2010E9426152F
S1130DF018161CF488E090E00FC020E030E040E8D2
S1130E0050E4C301B2010E94261518161CF480E4B4
S1130E1090E002C080E091E090939C0280939B025A
S1130E2060919B0270919C02072E000C880B990B19
S1130E300E9476142B013C019B01AC01C501B40155
S1130E400E942A159B01AC0160E074E284E79BE4F4
S1130E500E94DB1360939302709394028093950233
S1130E6090939602A70196010E94DB136B017C010B
S1130E70A301920160E074E284E79BE40E94DB1327
S1130E8024EA3CE848E356E30E942A159B01AC019E
S1130E90C701B6010E9472130E944814F89410927C
S1130EA08500109284007093890060938800789480
S1130EB080E001C081E0FF90EF90DF90CF90BF9081
S1130EC0AF909F908F907F906F905F904F90089518
S1130ED04CE150E060E070E08EE692E00E94F01990
S1130EE01092340210929D021092350210924A021E
S1130EF01092360210929C0210929B0210922E02C3
S1130F0010922F02109230021092310210928D0230
S1130F1010928E0210928F0210929002269A259AB5
S1130F20249A6E982C98F8941092800088E180930B
S1130F308100109285001092840082E080936F00FB
S1130F40789460917202709173028091740290910E
S1130F50750202CFCF92DF92EF92FF92CF93DF938D
S1130F60C0918800D091890060919B0270919C028D
S1130F70072E000C880B990B0E9476149B01AC0180
S1130F8060E074E284E79BE40E94DB1324EA3CE81B
S1130F9048E356E30E942A156B017C01BE0180E000
S1130FA090E00E9474149B01AC01C701B6010E9439
S1130FB073139B01AC016091930270919402809130
S1130FC09502909196020E94DB13DF91CF91FF90DE
S1130FD0EF90DF90CF900895F89488309105D9F080
S1130FE034F4019729F580918100816024C0803414
S1130FF09105A9F081159140D9F4809181008E7FEB
S113100080938100809181008D7F80938100809105
S1131010810084601AC0809181008E7F03C080911A
S1131020810081608093810080918100826008C08A
S1131030809181008E7F80938100809181008D7FDB
S113104080938100809181008B7F809381007894CC
S113105008959091340287FF0DC0992321F0809167
S11310609D02882349F110929D0280918802882371
S113107081F011C08823C9F0992321F080919D0249
S113108081111AC081E080939D0280918802882397
S113109011F02D9801C02D9A80919B0290919C0291
S11310A09BDF81E0809334020895992329F080E046
S11310B090E092DF1092340208950F931F93CF9320
S11310C0DF93EC0180913602823039F1833009F4E8
S11310D058C000918D0210918E0220918F023091A0
S11310E0900240912E0250912F0260913002709133
S11310F03102813009F056C0041715072607370757
S113110039F004171507260737070CF45AC054C0E2
S113111080E09FDF1092360255C02CB18091890285
S113112090E026FB442740F950E08417950709F422
S113113043C081E08093360220916E0230916F02A9
S11311404091700250917102609184027091850205
S113115080918602909187020E942A150E9443146E
S113116060938D0270938E0280938F02909390020D
S113117010922E0210922F0210923002109231021D
S113118021C04CB18091890290E046FB222720F9CE
S113119030E08217930791F480E05BDF82E0809374
S11311A0360210C0041715072607370749F004173D
S11311B015072607370714F08FEF03C081E001C03D
S11311C080E047DF8091340281111DC08091350297
S11311D08130C9F480914A02882359F08091360203
S11311E0811111C01092350210924A026DE871E02B
S11311F004C01092350262E971E0CE01DF91CF9113
S11312001F910F91E2C3DF91CF911F910F91089528
S11312101F920F920FB60F9211242F933F934F9367
S11312205F936F937F938F939F93AF93BF93EF934A
S1131230FF9310928500109284002E9A40918D02A3
S113124050918E0260918F027091900280912E02D3
S113125090912F02A0913002B091310248175907A2
S11312606A077B0711F480E0F4DE80919D0281110E
S113127004C08FEF9FEFDC0104C081E090E0A0E0A8
S1131280B0E040918D0250918E0260918F02709176
S11312909002840F951FA61FB71F80938D02909311
S11312A08E02A0938F02B09390022E98FF91EF913B
S11312B0BF91AF919F918F917F916F915F914F916A
S11312C03F912F910F900FBE0F901F90189581E0C2
S11312D08093670280938A0289B12091660230E08C
S11312E0082E000C990B8827990F881F9927281717
S11312F0390711F083E001C082E0809391020895E0
S113130010926A0210926B0210926C0210926D029B
S1131310109245021092460210924702109248021F
S11313200895109291028091450290914602A091F5
S11313304702B091480280936A0290936B02A09393
S11313406C02B0936D020895CF92DF92EF92FF92F8
S11313506B017C01809158028823E1F0A70196017A
S11313606091590270915A0280915B0290915C02E3
S11313700E94D71387FD29C020915D0230915E023F
S113138040915F0250916002C701B6010E94D713D9
S113139087FD1BC081E08093670220914B0230914E
S11313A04C0240914D0250914E02C701B6010E9479
S11313B02A150E94431460936A0270936B0280930F
S11313C06C0290936D0280E001C081E0FF90EF9089
S11313D0DF90CF900895609145027091460280910C
S11313E04702909148020E94761420914B0230915A
S11313F04C0240914D0250914E020C94DB134F92DB
S11314005F926F927F928F929F92AF92BF92CF9290
S1131410DF92EF92FF926B017C0120E030E0A901A2
S11314200E94261518160CF098C020915402309191
S113143055024091560250915702C701B6010E94CD
S1131440D71318162CF480915302882309F485C00D
S113145080904B0290904C02A0904D02B0904E02AE
S1131460A5019401C701B6010E942A152B013C0174
S113147020E030E045E753E40E94261518161CF4DA
S113148081E090E01CC020E030E048EF51E4C3016B
S1131490B2010E94261518161CF488E090E00FC0D3
S11314A020E030E040E850E4C301B2010E94261578
S11314B018161CF480E490E002C080E091E0909360
S11314C08C0280938B0260918B0270918C02072EA8
S11314D0000C880B990B0E9476142B013C019B0194
S11314E0AC01C501B4010E942A159B01AC0160E066
S11314F074E284E79BE40E94DB1360939702709389
S113150098028093990290939A02A70196010E94EF
S1131510DB136B017C01A301920160E074E284E7B8
S11315209BE40E94DB1324EA3CE848E356E30E9470
S11315302A159B01AC01C701B6010E9472130E94D7
S11315404814F894109295001092940070939900A6
S113155060939800789480E001C081E0FF90EF9060
S1131560DF90CF90BF90AF909F908F907F906F90BF
S11315705F904F9008954CE150E060E270E08BE49E
S113158092E00E94F01910929E021092370210927B
S1131590670210928A021092910210929C02109299
S11315A09B0210926A0210926B0210926C021092CB
S11315B06D02109245021092460210924702109258
S11315C048023F9A569A279A57982F98F89410925F
S11315D0900088E1809391001092950010929400FD
S11315E082E080937100789460914F027091500270
S11315F0809151029091520202CFCF92DF92EF92EA
S1131600FF92CF93DF93C0919800D091990060919D
S11316108B0270918C02072E000C880B990B0E9490
S113162076149B01AC0160E074E284E79BE40E94C1
S1131630DB1324EA3CE848E356E30E942A156B01D5
S11316407C01BE0180E090E00E9474149B01AC0117
S1131650C701B6010E9473139B01AC01609197020C
S1131660709198028091990290919A020E94DB13E2
S1131670DF91CF91FF90EF90DF90CF900895F89491
S113168088309105D9F034F4019729F580919100BF
S1131690816024C080349105A9F081159140D9F46A
S11316A0809191008E7F80939100809191008D7F35
S11316B0809391008091910084601AC08091910080
S11316C08E7F03C08091910081608093910080910E
S11316D09100826008C0809191008E7F8093910078
S11316E0809191008D7F80939100809191008B7FF8
S11316F0809391007894089590919E0287FF0DC085
S1131700992321F080913702882349F110923702FE
S113171080916502882381F011C08823C9F0992340
S113172021F08091370281111AC081E08093370241
S113173080916502882311F05E9801C05E9A8091C1
S11317408B0290918C029BDF81E080939E0208952E
S1131750992329F080E090E092DF10929E02089590
S11317600F931F93CF93DF93EC018091910282300A
S113177039F1833009F45BC00091450210914602AF
S1131780209147023091480240916A0250916B02C5
S113179060916C0270916D02813009F05CC0041795
S11317A015072607370739F00417150726073707E3
S11317B00CF460C05AC080E09FDF109291025BC0BD
S11317C089B12091660230E0082E000C990B88271D
S11317D0990F881F99272817390709F446C081E013
S11317E08093910220914B0230914C0240914D0222
S11317F050914E0260916102709162028091630285
S1131800909164020E942A150E9443146093450239
S113181070934602809347029093480210926A02A2
S113182010926B0210926C0210926D0224C089B166
S11318302091660230E0082E000C990B8827990F3E
S1131840881F99272817390791F480E055DF82E033
S11318508093910210C0041715072607370749F033
S1131860041715072607370714F08FEF03C081E02C
S113187001C080E041DF80919E0281111DC08091F2
S113188067028130C9F480918A02882359F08091DB
S11318909102811111C01092670210928A0267E9C5
S11318A071E004C0109267026CE971E0CE01DF912F
S11318B0CF911F910F9189C0DF91CF911F910F910B
S11318C008951F920F920FB60F9211242F933F93F6
S11318D04F935F936F937F938F939F93AF93BF9334
S11318E0EF93FF931092950010929400479A4091C1
S11318F045025091460260914702709148028091DE
S11319006A0290916B02A0916C02B0916D0248172B
S113191059076A077B0711F480E0EEDE80913702F5
S1131920811104C08FEF9FEFDC0104C081E090E0DF
S1131930A0E0B0E040914502509146026091470218
S113194070914802840F951FA61FB71F809345020C
S113195090934602A0934702B09348024798FF91A0
S1131960EF91BF91AF919F918F917F916F915F9113
S11319704F913F912F910F900FBE0F901F9018958C
S1131980CF93DF93EC01FC0170968BE0DF011D9295
S11319908A95E9F782E08C83898783E08E8761E00A
S11319A0CE010196C5D2882361F061E0CE0106968E
S11319B0BFD2882331F061E0CE010B96DF91CF9145
S11319C0B7C280E0DF91CF910895DB012091A3029B
S11319D02430C9F4FC014489558966897789452BEB
S11319E0462B472B81F081818F708093E900FD01A4
S11319F001900020E9F73197BF016A1B7B0B40E09F
S1131A0050E0CD0158C182E008950F931F93CF9306
S1131A102091A3022430F9F4FC0104891589268954
S1131A203789012B022B032BB1F0C62F81818F70D4
S1131A308093E9008091E80085FF04C0C093F10021
S1131A4080E00AC08091E8008E778093E800CCD2D1
S1131A508823A1F301C082E0CF911F910F910895D3
S1131A602091A302243041F5FC01448955896689FB
S1131A707789452B462B472BF9F081818F70809312
S1131A80E9002091F3008091F20090E0922B892BE1
S1131A9089F09091E8008091E8008E778093E800C7
S1131AA095FD08C0A1D2811108C08091E8008E770D
S1131AB08093E80080E0089582E008952091A302D5
S1131AC0243089F4FC014489558966897789452B3A
S1131AD0462B472B41F021812F702093E900209160
S1131AE0E80020FDBDCF08952091A302243019F011
S1131AF08FEF9FEF0895FC014489558966897789A2
S1131B00452B462B472BA1F386818F708093E900E8
S1131B108091E80082FFECCF2091F3008091F200E5
S1131B2090E0922B892B21F02091F10030E002C04B
S1131B302FEF3FEF4091F3008091F20090E0942B5F
S1131B40892B29F48091E8008B778093E800C90100
S1131B50089508950895CF93DF93EC018091E800F0
S1131B6083FFA6C0888190E02091A8023091A90249
S1131B702817390709F09CC08091A502813261F0D1
S1131B8020F4803209F43EC093C0823209F46CC060
S1131B90833209F47DC08CC08091A402813A09F09B
S1131BA087C08091E800877F8093E8008091E800F7
S1131BB080FFFCCF8C899D89AE89BF898093F10019
S1131BC0492F5A2F6B2F77274093F100AD016627D9
S1131BD077274093F1008B2F9927AA27BB2780935F
S1131BE0F100888D8093F100898D8093F1008A8DB6
S1131BF08093F1008091E8008E778093E800DF9174
S1131C00CF91D3C18091A402813209F051C0809157
S1131C10E800877F8093E8008091E80082FD05C09A
S1131C208091A3028111F8CF43C03091F10020913B
S1131C30F1009091F1008091F1003C8B2D8B9E8BF3
S1131C408F8B8091F100888F8091F100898F809132
S1131C50F1008A8F8091E8008B778093E800A5D10A
S1131C60CE01DF91CF9175CF8091A402813201F52D
S1131C708091E800877F8093E80097D18091A60245
S1131C809091A702998B888BCE01DF91CF9129C5C2
S1131C908091A402813261F48091E800877F80936F
S1131CA0E80083D16091A602CE01DF91CF9152CF9B
S1131CB0DF91CF910895CF92DF92EF92FF920F932D
S1131CC01F93CF93DF93EC018B017A018DD18111A6
S1131CD032C0E114F10439F0F70180819181081BCD
S1131CE0190BC80FD91FC12CD12C0115110511F1E5
S1131CF08091E80085FD15C08091E8008E7780937F
S1131D00E800E114F10449F0F70180819181C80EE3
S1131D10D91ED182C08285E00EC066D1882329F302
S1131D200AC089918093F10001501109FFEFCF1A85
S1131D30DF0ADBCF80E0DF91CF911F910F91FF90FD
S1131D40EF90DF90CF9008952091AA023091AB02DA
S1131D502617370748F06115710539F42091E8001A
S1131D602E772093E80001C0B901FC0120E0611541
S1131D70710579F18091A3028823F1F18530F1F1A5
S1131D808091E80083FD3CC08091E80082FD2EC074
S1131D908091E80080FFEBCF2091F3008091F20066
S1131DA090E0922B6115710551F08830910538F45B
S1131DB021912093F100615071090196F3CF21E044
S1131DC0089709F020E08091E8008E778093E8007E
S1131DD0CECF2111CFCF0AC08091A302882361F016
S1131DE0853061F08091E80083FD0AC08091E800AD
S1131DF082FFF2CF80E0089582E0089583E00895A1
S1131E0081E008952091AA023091AB02261737078A
S1131E1048F06115710539F42091E8002E7720937C
S1131E20E80001C0B901FC0120E06115710591F1E0
S1131E308091A302882309F440C0853009F43FC08F
S1131E408091E80083FD3DC08091E80082FD2FC0B1
S1131E508091E80080FFE9CF2091F3008091F200A7
S1131E6090E0922B6115710559F08830910540F48A
S1131E7024912093F1003196615071090196F2CFBB
S1131E8021E0089709F020E08091E8008E778093A4
S1131E90E800CBCF2111CCCF0AC08091A3028823C4
S1131EA061F0853061F08091E80083FD0AC0809183
S1131EB0E80082FFF2CF80E0089582E0089583E095
S1131EC0089581E00895982F973068F59093E9007C
S1131ED0981739F07091EC002091ED005091F000CA
S1131EE003C0242F762F50E021FD02C09F5FECCF6A
S1131EF03091EB003E7F3093EB003091ED003D7F5D
S1131F003093ED003091EB0031603093EB0070932F
S1131F10EC002093ED005093F0002091EE0027FD9B
S1131F20E5CF80E008958F708093E90081E0089503
S1131F300F931F93CF93DF93062FEC0110E010173C
S1131F4071F16881611103C01F5F2596F8CF2C8160
S1131F50A981BA819B81862F8F70873010F080E031
S1131F601FC0223010F442E001C046E0E8E0F0E097
S1131F7020E0EA17FB0720F42F5FEE0FFF1FF9CFD5
S1131F802295207F422B50E4959F90011124661FD7
S1131F906627661F622B97DF8111D6CFE0CF81E0E1
S1131FA0DF91CF911F910F9108958091A40287FF33
S1131FB011C08091E80082FD05C08091A3028111C7
S1131FC0F8CF11C08091E8008B770BC08091A302F9
S1131FD0882349F08091E80080FFF8CF8091E800E1
S1131FE08E778093E80008952091E4003091E50015
S1131FF095E64091EC00842F817040FF23C08091CE
S1132000E80080FD1DC08091A302882399F08530EB
S113201099F08091EB0085FD11C04091E40050914E
S1132020E5002417350729F3915011F09A01E1CF07
S113203084E0089582E0089583E0089581E008959E
S113204080E008954091E80042FFDDCF08950F93AA
S11320501F93CF93DF934BD052D0C8EDD0E088814B
S11320608F77888388818068888388818F7D88833F
S113207019BC1092A30210929F021092A102109216
S1132080A00200EE10E0F80180818B7F80838881BC
S11320908160888342E060E080E015DFE1EEF0E0FB
S11320A080818E7F8083E2EEF0E080818160808396
S11320B0808188608083F80180818E7F808388811D
S11320C080618883DF91CF911F910F910895E8ED8E
S11320D0F0E080818F7E8083E7EDF0E08081816095
S11320E0808384E082BF81E08093A202B0CFE8EDD8
S11320F0F0E080818E7F80831092E2000895109238
S1132100DA001092E10008951F920F920FB60F9219
S113211011242F933F934F935F936F937F938F93E8
S11321209F93AF93BF93EF93FF938091E10082FF5E
S11321300AC08091E20082FF06C08091E1008B7F9B
S11321408093E10051D28091DA0080FF1DC080911C
S1132150D80080FF19C08091DA008E7F8093DA0066
S11321608091D90080FF0CC080E189BD82E189BDE6
S113217009B400FEFDCF81E08093A302AAD204C07B
S113218019BC1092A302A6D28091E10080FF18C06E
S11321908091E20080FF14C08091E2008E7F8093E2
S11321A0E2008091E20080618093E2008091D80097
S11321B080628093D80019BC85E08093A30214D276
S11321C08091E10084FF2FC08091E20084FF2BC046
S11321D080E189BD82E189BD09B400FEFDCF809113
S11321E0D8008F7D8093D8008091E1008F7E80930A
S11321F0E1008091E2008F7E8093E2008091E20012
S113220081608093E20080919F02882311F084E032
S113221007C08091E30087FD02C081E001C083E034
S11322208093A302E1D18091E10083FF27C08091D4
S1132230E20083FF23C08091E100877F8093E10067
S113224082E08093A30210929F028091E1008E7F2E
S11322508093E1008091E2008E7F8093E200809180
S1132260E20080618093E20042E060E080E02BDEE7
S11322708091F00088608093F000B6D1FF91EF91D7
S1132280BF91AF919F918F917F916F915F914F918A
S11322903F912F910F900FBE0F901F9018951F9292
S11322A00F920FB60F9211242F933F934F935F9386
S11322B06F937F938F939F93AF93BF93CF93DF934A
S11322C0EF93FF93C091E900CF708091EC00D82F79
S11322D0D17080FDD0E81092E9008091F000877FF2
S11322E08093F00078941ED01092E9008091F00061
S11322F088608093F000CD2BCF70C093E900FF91EC
S1132300EF91DF91CF91BF91AF919F918F917F9189
S11323106F915F914F913F912F910F900FBE0F904E
S11323201F9018951F93CF93DF93CDB7DEB7AA976D
S11323300FB6F894DEBF0FBECDBFE4EAF2E08091A1
S1132340F100819322E0EC3AF207C9F7C7D18091FA
S1132350E80083FF31C18091A4029091A5029530D9
S113236009F483C030F49130A9F168F0933091F10D
S113237023C1983009F4F0C0993009F4FCC09630B8
S113238009F01AC194C0803821F0823809F014C1D0
S113239008C08091A0029091A102992389F08260E3
S11323A00FC08091A8028F70873008F005C1809318
S11323B0E9008091EB0085FB882780F91092E90001
S11323C09091E800977F9093E8008093F100109239
S11323D0F100CDC0282F2D7F09F0EEC0882319F01D
S11323E0823061F0E9C08091A602813009F0E4C036
S11323F0933009F080E08093A1022EC08091A60260
S113240081112AC08091A8028F702FEF280F2630E7
S113241008F0D2C08093E9002091EB0020FF1CC09B
S1132420933021F48091EB00806214C09091EB0012
S113243090619093EB0021E030E0A90102C0440FC9
S1132440551F8A95E2F74093EA001092EA008091C2
S1132450EB0088608093EB001092E9008091E80023
S1132460877F8093E800A1DDA7C08111A5C01091EA
S1132470A6021F778091E3008078812B8093E3008C
S11324808091E800877F8093E8008FDD8091E800E9
S113249080FFFCCF8091E30080688093E3001111FA
S11324A002C082E001C083E08093A30285C080580B
S11324B0823008F081C08091A6029091A7028C3DE1
S11324C053E0950771F583E08A838AE289834FB7E5
S11324D0F894DE01139620E03EE051E2E32FF0E0B1
S11324E050935700E49120FF03C0E295EF703F5FE3
S11324F0EF708E2F90E0EA3010F0C79601C0C096BE
S11325008D939D932F5F243149F74FBF8091E8004D
S1132510877F8093E8006AE270E0CE01019614DCC4
S113252015C06091A8027091A902AE014F5F5F4F80
S11325300E947905BC01892B09F43EC09091E80002
S1132540977F9093E80089819A815CDC8091E80010
S11325508B778093E80030C0803871F58091E80073
S1132560877F8093E80080919F028093F10080919F
S1132570E8008E7776CF81111FC08091A6029091DA
S1132580A70299270297C4F48091E800877F80937B
S1132590E8008091A60280939F0207DD80919F024C
S11325A0811106C08091E30087FD02C081E001C073
S11325B084E08093A3028FD08091E80083FF0AC057
S11325C08091E800877F8093E8008091EB0080622F
S11325D08093EB00AA960FB6F894DEBF0FBECDBF72
S11325E0DF91CF911F9108950895CF938091A30215
S11325F0882399F0C091E900CF709091EC00892F65
S1132600817090FD80E8C82B1092E9008091E80069
S113261083FD88DECF70C093E900CF9108951092B6
S11326203302109232021092920284B7877F84BFE1
S11326300FB6F894A895809160008861809360003B
S1132640109260000FBE90E080E80FB6F89480937B
S11326506100909361000FBE3ADD7894209A559AF8
S1132660289A5D9AE2E2F2E02FB7F89482EA91E0C8
S113267091838083938382839583848382E292E02F
S11326809783868380E890E09187808713861286FB
S11326902FBF0E9468070E94BB0A80E091E00E945D
S11326A05D0880E091E05CD862E272E080E091E055
S11326B00E94E20062E272E080E091E00E94110177
S11326C080E091E00E946E0180E091E0F7D98DDF17
S11326D0E4CF0895089580E091E052C980E091E04C
S11326E03ACA08955058BB27AA270ED075C166D19F
S11326F030F06BD120F031F49F3F11F41EF45BC134
S11327000EF4E095E7FB51C1E92F77D180F3BA17B6
S1132710620773078407950718F071F49EF58FC15B
S11327200EF4E0950B2EBA2FA02D0B01B9019001E8
S11327300C01CA01A0011124FF27591B99F0593F2C
S113274050F4503E68F11A16F040A22F232F342F74
S11327504427585FF3CF469537952795A795F040C2
S11327605395C9F77EF41F16BA0B620B730B840BD7
S1132770BAF09150A1F0FF0FBB1F661F771F881F8F
S1132780C2F70EC0BA0F621F731F841F48F48795E7
S113279077956795B795F7959E3F08F0B3CF9395D6
S11327A0880F08F09927EE0F979587950895D9D04B
S11327B008F481E008950CD00FC107D140F0FED099
S11327C030F021F45F3F19F0F0C0511139C1F3C06A
S11327D014D198F39923C9F35523B1F3951B550BE1
S11327E0BB27AA2762177307840738F09F5F5F4FE0
S11327F0220F331F441FAA1FA9F333D00E2E3AF021
S1132800E0E830D091505040E695001CCAF729D03A
S1132810FE2F27D0660F771F881FBB1F2617370789
S11328204807AB07B0E809F0BB0B802DBF01FF27B9
S113283093585F4F2AF09E3F510568F0B6C000C11F
S11328405F3FECF3983EDCF3869577956795B795F3
S1132850F7959F5FC9F7880F911D9695879597F90E
S11328600895E1E0660F771F881FBB1F6217730787
S11328708407BA0720F0621B730B840BBA0BEE1F9C
S113288088F7E095089504D06894B111D9C00895EB
S1132890BCD088F09F5790F0B92F9927B751A0F07A
S11328A0D1F0660F771F881F991F1AF0BA95C9F7E0
S11328B012C0B13081F0C3D0B1E00895C0C0672F19
S11328C0782F8827B85F39F0B93FCCF38695779590
S11328D06795B395D9F73EF4909580957095619579
S11328E07F4F8F4F9F4F0895E89409C097FB3EF4A4
S11328F090958095709561957F4F8F4F9F4F992349
S1132900A9F0F92F96E9BB279395F69587957795C6
S11329106795B795F111F8CFFAF4BB0F11F460FF86
S11329201BC06F5F7F4F8F4F9F4F16C0882311F0DE
S113293096E911C0772321F09EE8872F762F05C0F2
S1132940662371F096E8862F70E060E02AF09A958D
S1132950660F771F881FDAF7880F9695879597F982
S11329600895990F0008550FAA0BE0E8FEEF16161C
S11329701706E807F907C0F012161306E407F5076F
S113298098F0621B730B840B950B39F40A2661F0E3
S1132990232B242B252B21F408950A2609F4A14086
S11329A0A6958FEF811D811D089597F99F6780E893
S11329B070E060E008959FEF80EC089500240A948D
S11329C01616170618060906089500240A94121606
S11329D01306140605060895092E0394000C11F439
S11329E0882352F0BB0F40F4BF2B11F460FF04C0E6
S11329F06F5F7F4F8F4F9F4F089557FD9058440F3F
S1132A00551F59F05F3F71F04795880F97FB991F49
S1132A1061F09F3F79F08795089512161306140606
S1132A20551FF2CF4695F1DF08C016161706180693
S1132A30991FF1CF86957105610508940895E8946E
S1132A40BB2766277727CB0197F908958ADF08F417
S1132A508FEF08950BD0C0CFB1DF28F0B6DF18F0A8
S1132A60952309F0A2CFA7CF1124EACFC6DFA0F3A4
S1132A70959FD1F3950F50E0551F629FF001729F0F
S1132A80BB27F00DB11D639FAA27F00DB11DAA1F2E
S1132A90649F6627B00DA11D661F829F2227B00D7B
S1132AA0A11D621F739FB00DA11D621F839FA00D06
S1132AB0611D221F749F3327A00D611D231F849F56
S1132AC0600D211D822F762F6A2F11249F575040AD
S1132AD08AF0E1F088234AF0EE0FFF1FBB1F661F48
S1132AE0771F881F91505040A9F79E3F510570F001
S1132AF05CCFA6CF5F3FECF3983EDCF386957795E9
S1132B006795B795F795E7959F5FC1F7FE2B880FFB
S1132B10911D9695879597F908952FD020F09F37AA
S1132B2008F48ECF01C01BC0882371F4772321F0F1
S1132B309850872B762F07C0662311F499270DC070
S1132B409051862B70E060E02AF09A95660F771F0B
S1132B50881FDAF7880F9695879597F908959F3F10
S1132B6031F0915020F4879577956795B795880F44
S1132B70911D9695879597F9089547DFA0F0BEE7D4
S1132B80B91788F4BB279F3860F41616B11D672F58
S1132B90782F8827985FF7CF869577956795B11D2D
S1132BA093959639C8F308956627772703C2FB01E6
S1132BB0DC010D900020E9F7119701900D9200209F
S1132BC0E1F70895FB01DC0101900D920020E1F78B
S1132BD00895AEE0B0E0EEEEF5E14BC40D891E8938
S1132BE086E08C831A8309838FEF9FE79E838D830E
S1132BF0AE01475E5F4F6F89788DCE01019608D094
S1132C00EF81F885E00FF11F10822E96E4E04DC4A9
S1132C10ABE0B0E0EDE0F6E11EC46C017B018A019B
S1132C20FC0117821682838181FFBFC1CE01019608
S1132C303C01F6019381F70193FD859193FF819106
S1132C407F01882309F4ADC1853239F493FD859160
S1132C5093FF81917F01853221F4B60190E023D363
S1132C60E8CF912C212C312CFFE1F315D8F08B32D5
S1132C7079F038F4803279F08332A1F4232D206185
S1132C801DC08D3261F0803369F4232D216016C09C
S1132C90832D8260382EE32DE4603E2E2AC0F32D6E
S1132CA0F8601DC037FC2DC020ED280F2A3040F0FD
S1132CB08E32B9F436FC75C1232D2064322E19C02E
S1132CC036FE06C08AE0989E200D1124922E11C073
S1132CD0EAE02E9E200D1124222EF32DF0623F2EC9
S1132CE008C08C3621F4832D8068382E02C08836C3
S1132CF041F4F70193FD859193FF81917F01811147
S1132D00B3CF982F9F7D9554933028F40C5F1F4FB9
S1132D109FE399830DC0833631F0833771F0833597
S1132D2009F055C020C0F801808189830E5F1F4FD0
S1132D3088248394912C530112C02801F2E04F0E91
S1132D40511CF801A080B18036FE03C0692D70E0EB
S1132D5002C06FEF7FEFC5019BD24C018201F32DBE
S1132D60FF773F2E15C0280122E0420E511CF801C6
S1132D70A080B18036FE03C0692D70E002C06FEF01
S1132D807FEFC5017AD24C01F32DF0683F2E82010A
S1132D9033FC19C0822D90E088169906A0F4B60180
S1132DA080E290E080D22A94F5CFF50137FC85913A
S1132DB037FE81915F01B60190E075D221102A940B
S1132DC021E0821A91088114910479F7E1C08436D4
S1132DD011F0893639F5F80137FE07C06081718139
S1132DE0828193810C5F1F4F08C060817181072E1F
S1132DF0000C880B990B0E5F1F4FF32DFF763F2EAF
S1132E0097FF09C090958095709561957F4F8F4F7E
S1132E109F4FF0683F2E2AE030E0A30180D2882E35
S1132E20861844C0853731F4232D2F7EB22E2AE034
S1132E3030E025C0932D997FB92E8F36C1F018F458
S1132E40883579F0AEC0803719F0883721F0A9C0F1
S1132E50E92FE061BE2EB4FE0DC0FB2DF460BF2E41
S1132E6009C034FE0AC0292F2660B22E06C028E00D
S1132E7030E005C020E130E002C020E132E0F8019A
S1132E80B7FE07C060817181828193810C5F1F4FFF
S1132E9006C06081718180E090E00E5F1F4FA30146
S1132EA03ED2882E8618FB2DFF773F2E36FE0DC0AE
S1132EB0232D2E7FA22E891458F434FE0BC032FC2D
S1132EC009C0832D8E7EA82E05C0B82CA32C03C068
S1132ED0B82C01C0B92CA4FE0FC0FE01E80DF11DF1
S1132EE08081803321F49A2D997EA92E09C0A2FEF7
S1132EF006C0B394B39404C08A2D867809F0B394C1
S1132F00A3FC10C0A0FE06C0B21480F4280C922CBE
S1132F109B180DC0B21458F4B60180E290E0C3D1FE
S1132F20B394F8CFB21418F42B1802C0982C212CA7
S1132F30A4FE0FC0B60180E390E0B5D1A2FE16C096
S1132F40A1FC03C088E790E002C088E590E0B601E8
S1132F500CC08A2D867851F0A1FE02C08BE201C01C
S1132F6080E2A7FC8DE2B60190E09DD1891430F493
S1132F70B60180E390E097D19A94F8CF8A94F30154
S1132F80E80DF11D8081B60190E08DD18110F6CF5E
S1132F90222009F44ECEB60180E290E084D12A9436
S1132FA0F7CFF6018681978102C08FEF9FEF2B96B2
S1132FB0E2E16DC2A0E0B0E0EFEDF7E152C2EC0156
S1132FC06B016115710519F0FB01918380837E010A
S1132FD0FFEFEF1AFF0A0881802F90E02ED1892B92
S1132FE011F0E701F4CF0D3239F47E0182E0E80EEE
S1132FF0F11C098111E008C00B3229F47E0192E032
S1133000E90EF11C098110E0E701219743E050E04B
S113301064EB70E0CE0119D1892BB9F4239645E015
S113302050E06FEA70E0CE0110D1892B09F42596A7
S1133030C114D10419F0F601D183C0831111F0C079
S113304060E070E080E89FE7F4C043E050E06CEAA1
S113305070E0CE01FAD0892B59F4C114D10409F4DB
S1133060E4C0F2E0EF0EF11CF601F182E082DDC073
S113307020E030E0A901C0E0D0E0F70180EDA82E07
S1133080A00E89E08A1528F1912F9260B92E812F24
S1133090887012FF04C0811123C0219621C08111C0
S11330A02197A5E0B0E0CDD1DC01CB01880F991FB9
S11330B0AA1FBB1F9C01AD012A0D311D411D511DCD
S11330C0283989E93807480789E1580748F0166024
S11330D006C09EEFA9120AC013FD40C01860B12EAD
S11330E08FEFE81AF80A00811B2DC7CF802F8F7D40
S11330F08534A1F580818D3211F4106106C08B32C4
S113310021F0319661E070E004C08181329662E082
S113311070E080538A3018F0E61BF70B1FC060E0A4
S113312070E060389CE079075CF4DB01AA0FBB1FF8
S1133130AA0FBB1F6A0F7B1F660F771F680F711DD5
S11331403196DF0111978C9180538A3050F314FF2C
S113315003C0719561957109C60FD71F11FF08C08F
S1133160C114D10429F0CF010197F6019183808322
S1133170CA01B901B9DB212F2370233019F04B01A7
S11331805C0106C04B015C01B7FAB094B7F8B09487
S113319020E030E0A901C501B40109DB882309F46A
S11331A03CC0D7FF06C0D195C195D1090BEC10E006
S11331B002C003EE10E06801F8E1CF1AD10890E2F2
S11331C0E92EF12CCE15DF056CF0F801259135912F
S11331D045915491C501B4013DDC4B015C01CE190C
S11331E0DF09F0CF04501109F594E7940C151D057F
S11331F049F78A2D880F8B2D881F8F3F41F020E0DF
S113320030E0A901C501B401D2DA811106C082E21D
S113321090E09093AD028093AC02C501B40109C063
S113322060E070E080E89FEF04C060E070E080EC54
S11332309FE7CDB7DEB7ECE030C19111CEC080324C
S113324019F089508550D0F70895FB01DC014150F5
S1133250504088F08D9181341CF08B350CF4805EE5
S1133260659161341CF06B350CF4605E861B611152
S113327071F3990B0895881BFCCFFC0105906150F4
S113328070400110D8F7809590958E0F9F1F089578
S1133290FC016150704001900110D8F78095909521
S11332A08E0F9F1F08950F931F93CF93DF93FB01FE
S11332B0238121FD03C08FEF9FEF2CC022FF16C096
S11332C046815781248135814217530744F4A081F4
S11332D0B1819D012F5F3F4F318320838C932681E1
S11332E037812F5F3F4F3783268314C08B01EC0156
S11332F0FB010084F185E02D0995892BE1F6D801C5
S113330016968D919C911797019617969C938E9380
S11333101697CE01DF91CF911F910F910895FA0175
S1133320AA27283051F1203181F1E8946F936E7F00
S11333306E5F7F4F8F4F9F4FAF4FB1E03ED0B4E0F1
S11333403CD0670F781F891F9A1FA11D680F791F32
S11333508A1F911DA11D6A0F711D811D911DA11D43
S113336020D009F468943F912AE0269F1124301953
S1133370305D3193DEF6CF010895462F4770405DEE
S11333804193B3E00FD0C9F7F6CF462F4F70405D9D
S11333904A3318F0495D31FD4052419302D0A9F7F8
S11333A0EACFB4E0A6959795879577956795BA95F2
S11333B0C9F700976105710508959B01AC010A2EB8
S11333C006945795479537952795BA95C9F7620F8F
S11333D0731F841F951FA01D08959927882708959A
S11333E0DC01CB01FC01F999FECF06C0F2BDE1BDC1
S11333F0F89A319600B40D9241505040B8F70895B0
S1133400DC01A40FB51F4150504040F0CB01840FA4
S1133410951F2E9105D041505040D8F70895262F7E
S1133420F999FECF92BD81BDF89A019700B40216B6
S113343039F01FBA20BD0FB6F894FA9AF99A0FBE64
S1133440089540D0A59F900DB49F900DA49F800D2A
S1133450911D112408952F923F924F925F926F9283
S11334607F928F929F92AF92BF92CF92DF92EF9210
S1133470FF920F931F93CF93DF93CDB7DEB7CA1B91
S1133480DB0B0FB6F894DEBF0FBECDBF09942A88BC
S1133490398848885F846E847D848C849B84AA8464
S11334A0B984C884DF80EE80FD800C811B81AA81F1
S11334B0B981CE0FD11D0FB6F894DEBF0FBECDBFBC
S11334C0ED010895A29FB001B39FC001A39F700DA9
S11334D0811D1124911DB29F700D811D1124911D18
S10934E00895F894FFCFEB
S11334E6008310000001041000000182080000019E
S11334F60000000000000000000000310030004819
S11335064C540045535400504152414D00455849CE
S113351654005350553D00564C4D3D00564D583DB4
S1133526005644463D00504C4D3D00504D583D001C
S1133536504D4E3D00524F463D0044494E3D0052CB
S1133546504C3D0041004200533F00533D00503F64
S113355600503D00523D00483D005A3D004553523F
S1133566002D00257325642E253034640041522134
S11335760D004150210D004252210D004250210DF3
S105358600003F
S9030000FC
