S01D00004475616C53746570706572436F6E74726F6C6C65722E737265637A
S1130000C3C00000DEC00000DCC00000DAC0000095
S1130010D8C00000D6C00000D4C00000D2C0000088
S1130020D0C00000CEC000000C9498100C94631152
S1130030C8C00000C6C00000C4C00000C2C00000A8
S1130040C0C000000C940209BCC00000BAC000008B
S1130050B8C00000B6C00000B4C00000B2C00000C8
S1130060B0C00000AEC00000ACC00000AAC00000D8
S1130070A8C00000A6C00000A4C00000A2C00000E8
S11300800C94750C9EC000009CC000009AC0000037
S113009098C0000096C0000094C0000092C0000008
S11300A090C000008EC000008CC000004E414E493C
S11300B04E495459494E46CDCCCC3D0AD7233C1722
S11300C0B7D13877CC2B329595E6241FB14F0A006F
S11300D00020410000C84200401C4620BCBE4CCA5F
S11300E01B0E5AAEC59D742C034400750061006C50
S11300F000530074006500700070006500720043D6
S1130100006F006E00740072006F006C006C00657C
S113011000720000001C034D006900630068006168
S11301200065006C0020004C006F006F00730065D8
S11301300000000403090409023E00020100C03269
S11301400904000001020201000524001001042436
S113015002060524060001070582030800FF0904BE
S11301600100020A0000000705040210000507054B
S1130170830210000512011001020000082910A1D9
S11301804201000102DC010011241FBECFEFDAE0BE
S1130190DEBFCDBF11E0A0E0B1E0EEE0F5E302C0C8
S11301A005900D92AE39B107D9F722E0AEE9B1E07E
S11301B001C01D92AC3AB207E1F70E9423130C94DC
S11301C0851A1ECFCF93DF93FB014FB7F894228596
S11301D033854FBF4085518542175307F9F0EB0132
S11301E00E94880D97FD1AC0FE01A081B1818C93F5
S11301F08081918101969183808326813781821742
S1130200930721F484819581918380832FB7F89497
S1130210828593850196938782872FBFDF91CF9143
S113022008952FB7F894DB011A968D919C911B9732
S11302302FBF009709F451C02091460221110EC02E
S1130240E4E3F2E02DE0DF011D922A95E9F7F09353
S11302506702E093660221E0209346022091460261
S11302602130D9F5FB01A281B3812D91B383A283FF
S113027046815781A417B50721F4448155815383DE
S113028042833FB7F89442855385415051095387BF
S113029042873FBFE0916602F09167022A30A1F0E5
S11302A02D3091F00197AF01445352404C30510529
S11302B05CF4AF014F5F5F4F509367024093660257
S11302C02083009779F60895E453F2401E161F0622
S11302D024F482E080934602089508956F927F92F9
S11302E08F929F92AF92BF92CF92DF92EF92FF9242
S11302F00F931F93CF93DF93CDB7DEB7E2970FB67B
S1130300F894DEBF0FBECDBF8C01809146028230CF
S113031009F0BAC38FE390E09AA389A3FE01B396D0
S11303208EE0DF011D928A95E9F7909134029F7D5A
S11303309235A9F4209135022F7D233581F4209143
S113034036022F7D243559F498E088E10FB6F894ED
S1130350A895809360000FBE90936000FFCF8091BA
S11303609002813009F45EC3983489F48091350297
S11303708F7D8C3461F4809136028F7D843539F41D
S113038029D46FE171E0CE0181960E94F615809127
S113039034028F7D853489F4809135028F7D8335D5
S11303A061F4809136028F7D843539F415D463E28B
S11303B071E0CE0181960E94F615809134028F7D02
S11303C08035F1F4809135028F7D8134C9F48091B8
S11303D036028F7D8235A1F4809137028F7D81347E
S11303E079F4809138028F7D8D3451F4F3D382E017
S11303F08093900267E271E0CE0181960E94F61527
S113040080919002823009F026C2809134028F7D5F
S11304108534C1F4809135028F7D883599F48091BB
S113042036028F7D893471F4809137028F7D843553
S113043049F4D0D3109290026DE271E0CE0181961E
S11304400E94F615809134028F7D813459F08234F4
S113045009F001C290E2C92ED12C29E4E22E22E057
S1130460F22E06C0C12CD12C8CE6E82E82E0F82EA8
S1130470809135028F7D833581F5809136028F7DA1
S1130480803559F5809137028F7D853531F580911E
S113049038028D3379F489E392E00E94E815F7017C
S11304A0608371838283938362E371E0CE018196DA
S11304B00E94F615809138028F3379F4D7014D915B
S11304C05D916D917C91CE01019623D3BE016F5F46
S11304D07F4FCE0181960E94F615809135028F7D63
S11304E0863509F092C0809136028F7D8C3439F5BF
S11304F0809137028F7D8D3409F050C0809138028D
S11305008D3389F480913902803319F4F701108610
S113051007C0813309F042C081E0D70118968C935B
S113052067E371E037C08F33C9F5F7018085813007
S113053019F46BE171E02EC06DE171E02BC08D34D4
S113054069F5809137028F7D883541F580913802B5
S11305508D3389F489E392E00E94E815D701199656
S11305606D937D938D939C931C976CE371E0CE0106
S113057081960E94F615809138028F3379F4F70141
S11305804185528563857485CE010196C2D2BE0130
S11305906F5F7F4FCE0181960E94F61580913502E0
S11305A08F7D863591F5809136028F7D843469F58F
S11305B0809137028F7D863441F5809138028D33E6
S11305C089F489E392E00E94E815D70114966D93AB
S11305D07D938D939C93179761E471E0CE0181968E
S11305E00E94F615809138028F3379F4F701448123
S11305F0558166817781CE0101968BD2BE016F5FF2
S11306007F4FCE0181960E94F615809135028F7D31
S1130610803509F095C0809136028F7D8C3441F588
S1130620809137028F7D8D3409F051C0809138025A
S11306308D3389F480913902803321F4D7011D96DA
S11306401C9206C0813309F042C081E0F70185871E
S113065066E471E038C08F33D1F5D7011D968C91D3
S1130660813019F46BE171E02EC06DE171E02BC0B3
S11306708D3469F5809137028F7D883541F58091FD
S113068038028D3379F489E392E00E94E815F7018A
S113069066877787808B918B6BE471E0CE018196BE
S11306A00E94F615809138028F3389F4D7011E9683
S11306B04D915D916D917C915197CE01019629D216
S11306C0BE016F5F7F4FCE0181960E94F615809127
S11306D035028F7D8035A1F5809136028F7D8D3472
S11306E009F068C0809137028F7D8E3409F062C0B2
S11306F0809138028D3379F489E392E00E94E81501
S1130700F701628B738B848B958B60E571E0CE016E
S113071081960E94F615809138028F3389F4D701AF
S113072052964D915D916D917C915597CE010196B4
S1130730F0D1BE016F5F7F4FCE0181960E94F61506
S113074080913502982F9F7D9235A1F590913602C4
S11307509F7D9F3409F057C0909137029F7D963456
S113076009F051C0809138028D3379F489E392E025
S11307700E94E815F701668B778B808F918F65E572
S113078071E0CE0181960E94F615809138028F3374
S113079089F4D70156964D915D916D917C9159974D
S11307A0CE010196B6D1BE016F5F7F4FCE01819617
S11307B00E94F615809135028F7D843429F580914D
S11307C036028F7D893409F040C0809137028F7DD5
S11307D08E34D9F5809138028D3381F480913902B9
S11307E0803319F4F701128E06C0813371F581E06C
S11307F0D7015A968C936AE571E023C08F3329F5AB
S1130800F701828D17C08F7D8235F9F4809136020D
S11308108F7D8035D1F4809137028F7D8C34A9F49B
S1130820809138028D3309F41EC18F3371F4D701DE
S11308305B968C91813019F46BE171E002C06DE13B
S113084071E0CE0181960E94F6154CE150E0B601AC
S1130850C7010E94141A809190028111F9C08091FD
S113086034028F7D813401F1823409F0F1C066E6EF
S113087071E0CE01C1960E94F615E1E1FBE089EF3B
S1130880882E89E0982E95EEC92E99E0D92E2EE96E
S1130890A22E29E0B22E3AE7632E39E0732E41E608
S11308A0E42E49E0F42E1CC064E671E0CE01C1964A
S11308B00E94F615E4EAF7E05CE8852E56E0952EF2
S11308C068E7C62E66E0D62E71E3A72E76E0B72E33
S11308D0ADE06A2EA6E07A2EB7EFEB2EB5E0FB2E44
S11308E0809135028F7D8335C9F5809136028D3331
S11308F0C9F487E392E00E94E815F4010995BE016A
S11309006F5C7F4F813039F4CE0181960E94F615D9
S113091068E671E01FC0CE0181960E94F6156BE671
S113092071E018C08F33D1F40995AB01BC01CE013D
S11309300196EFD0BE016F5C7F4FCE0181960E947D
S1130940F6156BE671E0CE0181960E94EB15BE01AF
S11309506F5F7F4FCE0181960E94EB158091350227
S11309608F7D8035B1F5809136028D33A9F4BE01B7
S11309706F5C7F4FCE0181960E94F61587E392E06B
S11309800E94E815F5010995813019F46EE671E0CD
S11309901CC061E771E019C08F33D9F4F6010995E1
S11309A0AB01BC01CE010196B4D0BE016F5C7F4F98
S11309B0CE0181960E94F61561E771E0CE01819621
S11309C00E94EB15BE016F5F7F4FCE0181960E949E
S11309D0EB15809135028F7D883479F4F701099500
S11309E0BE016F5C7F4FCE0181960E94F61564E7CD
S11309F071E0CE0181960E94EB15809135028F7DC6
S1130A008A3531F5F3010995BE016F5C7F4FCE0144
S1130A1081960E94F61567E771E0CE0181960E94E7
S1130A20EB1516C0953471F4809135028F7D8335B2
S1130A3049F4809136028F7D823521F4D3D06AE760
S1130A4071E002C063E271E0CE0181960E94F61566
S1130A50BE016F5D7F4FC801CCD76DE0C801E9D7F7
S1130A601092460211C080913902803321F4D701DB
S1130A705B961C9206C0813309F0E7CE81E0F70152
S1130A80838F6FE571E0DDCEE2960FB6F894DEBF9A
S1130A900FBECDBFDF91CF911F910F91FF90EF90CB
S1130AA0DF90CF90BF90AF909F908F907F906F908A
S1130AB00895292F33272230310559F02330310589
S1130AC069F021303105E9F482E190E025E731E075
S1130AD01CC08EE390E027E331E017C099278130F2
S1130AE0910549F028F0029761F4E7EEF0E005C0C3
S1130AF0E3E3F1E002C0E5E1F1E0849190E09F01DD
S1130B0004C080E090E020E030E0FA0131832083EB
S1130B1008958F929F92AF92BF92CF92DF92EF92FD
S1130B20FF920F931F93CF93DF93182F092F6A011E
S1130B307B0120E030E0A901C701B6010E94EB135C
S1130B4087FD03C0CEE8D1E006C0CEE7D1E0F7FAD6
S1130B50F094F7F8F094C701B6010E9457144B01C2
S1130B605C01072E000C880B990B0E948A149B01D0
S1130B70AC01C701B6010E94861320E030E44CE1C9
S1130B8056E40E943E150E94A1150E9457147F93BB
S1130B906F939F928F92DF93CF9380E891E09F931E
S1130BA08F930F931F930E94FD158DB79EB70A96DE
S1130BB00FB6F8949EBF0FBE8DBFDF91CF911F91EA
S1130BC00F91FF90EF90DF90CF90BF90AF909F90E8
S1130BD08F90089533D09FC381E0809390022C9A24
S1130BE02F9AF8CF109290022C982F98089581E0B4
S1130BF080933102809347024CB18091870290E048
S1130C0046FB222720F930E08217930711F083E096
S1130C1001C082E080933202089510922A02109259
S1130C202B0210922C0210922D0210928B02109221
S1130C308C0210928D0210928E020895109232024C
S1130C4080918B0290918C02A0918D02B0918E02C2
S1130C5080932A0290932B02A0932C02B0932D022E
S1130C600895CF92DF92EF92FF926B017C01809105
S1130C7079028823E1F0A701960160917A027091CC
S1130C807B0280917C0290917D020E94EB1387FD90
S1130C9029C020917E0230917F02409180025091C0
S1130CA08102C701B6010E94EB1387FD1BC081E0DE
S1130CB08093310220916C0230916D0240916E025A
S1130CC050916F02C701B6010E943E150E9457144D
S1130CD060932A0270932B0280932C0290932D022E
S1130CE080E001C081E0FF90EF90DF90CF90089505
S1130CF060918B0270918C0280918D0290918E0292
S1130D000E948A1420916C0230916D0240916E020F
S1130D1050916F020C94EF134F925F926F927F92F7
S1130D208F929F92AF92BF92CF92DF92EF92FF92F7
S1130D306B017C0120E030E0A9010E943A151816ED
S1130D400CF0B4C020917502309176024091770284
S1130D5050917802C701B6010E94EB1318162CF4C7
S1130D6080917402882309F4A1C040906C025090D1
S1130D706D0260906E0270906F02A3019201C70130
S1130D80B6010E943E154B015C0120E030E045E7CE
S1130D9053E40E943A15181634F481E08093480213
S1130DA081E090E035C020E030E048EF51E4C50137
S1130DB0B4010E943A15181634F482E08093480274
S1130DC088E090E025C020E030E040E850E4C50130
S1130DD0B4010E943A15181634F483E08093480253
S1130DE080E490E015C020E030E040E85FE3C50116
S1130DF0B4010E943A15181634F484E08093480232
S1130E0080E091E005C085E08093480280E094E0B2
S1130E1090939A02809399026091990270919A0238
S1130E20072E000C880B990B0E948A144B015C015D
S1130E309B01AC01C301B2010E943E159B01AC01B0
S1130E4060E074E284E79BE40E94EF1360939102F4
S1130E50709392028093930290939402A701960157
S1130E600E94EF136B017C01A501940160E074E220
S1130E7084E79BE40E94EF1324EA3CE848E356E34A
S1130E800E943E159B01AC01C701B6010E94861366
S1130E900E945C14F8941092850010928400709360
S1130EA0890060938800789480E001C081E0FF901D
S1130EB0EF90DF90CF90BF90AF909F908F907F90F6
S1130EC06F905F904F9008954CE150E060E070E0C7
S1130ED08CE692E00E94041A1092300210929B0257
S1130EE0109231021092470210923202109248027C
S1130EF010922A0210922B0210922C0210922D02B0
S1130F0010928B0210928C0210928D0210928E021B
S1130F10269A259A249A6E982C98F8941092800018
S1130F2088E180938100109285001092840082E011
S1130F3080936F0078946091700270917102809137
S1130F40720290917302E8CECF92DF92EF92FF92F9
S1130F50CF93DF93C0918800D0918900609199026A
S1130F6070919A02072E000C880B990B0E948A1428
S1130F709B01AC0160E074E284E79BE40E94EF1300
S1130F8024EA3CE848E356E30E943E156B017C01E9
S1130F90BE0180E090E00E9488149B01AC01C7016F
S1130FA0B6010E9487139B01AC016091910270917C
S1130FB0920280919302909194020E94EF13DF9128
S1130FC0CF91FF90EF90DF90CF900895F894833005
S1130FD0A9F044F4813071F0823039F580918100B8
S1130FE08E7F0FC0843099F08530F9F480918100B0
S1130FF0816010C08091810081601AC0809181005D
S113100081608093810080918100826016C080910C
S113101081008E7F80938100809181008D7F8093F9
S113102081008091810084600DC0809181008E7F59
S113103080938100809181008D7F809381008091D5
S113104081008B7F80938100789408959091300281
S113105087FF0DC0992321F080919B02882331F1F1
S113106010929B0280918602882381F011C088230C
S1131070B9F0992321F080919B02811117C081E07E
S113108080939B0280918602882311F02D9801C0E1
S11310902D9A809148029ADF81E08093300208956E
S11310A0992321F080E092DF1092300208950F938B
S11310B01F93CF93DF93EC0180913202823039F198
S11310C0833009F458C000918B0210918C02209156
S11310D08D0230918E0240912A0250912B02609130
S11310E02C0270912D02813009F056C004171507A7
S11310F02607370739F004171507260737070CF4B6
S11311005AC054C080E0A2DF1092320255C02CB104
S11311108091870290E026FB442740F950E0841731
S1131120950709F443C081E08093320220916C0258
S113113030916D0240916E0250916F026091820273
S11311407091830280918402909185020E943E15E1
S11311500E94571460938B0270938C0280938D02CB
S113116090938E0210922A0210922B0210922C025B
S113117010922D0221C04CB18091870290E046FB71
S1131180222720F930E08217930791F480E05EDF94
S113119082E08093320210C0041715072607370730
S11311A049F0041715072607370714F08FEF03C01B
S11311B081E001C080E04ADF8091300281111DC0CE
S11311C0809131028130C9F480914702882359F01B
S11311D080913202811111C01092310210924702A3
S11311E06AE871E004C0109231026FE871E0CE0148
S11311F0DF91CF911F910F91FCC3DF91CF911F918C
S11312000F9108951F920F920FB60F9211242F93EE
S11312103F934F935F936F937F938F939F93AF937A
S1131220BF93EF93FF9310928500109284002E9A3F
S113123040918B0250918C0260918D0270918E02CC
S113124080912A0290912B02A0912C02B0912D0240
S1131250481759076A077B0711F480E0F7DE80918D
S11312609B02811104C08FEF9FEFDC0104C081E079
S113127090E0A0E0B0E040918B0250918C0260912C
S11312808D0270918E02840F951FA61FB71F809345
S11312908B0290938C02A0938D02B0938E022E98B1
S11312A0FF91EF91BF91AF919F918F917F916F913A
S11312B05F914F913F912F910F900FBE0F901F9010
S11312C0189581E0809365028093880289B120910A
S11312D0640230E0082E000C990B8827990F881FB0
S11312E099272817390711F083E001C082E0809321
S11312F08F020895109268021092690210926A0295
S113130010926B0210924202109243021092440215
S113131010924502089510928F028091420290919A
S11313204302A0914402B0914502809368029093D5
S11313306902A0936A02B0936B020895CF92DF9280
S1131340EF92FF926B017C01809156028823E1F0B9
S1131350A701960160915702709158028091590239
S113136090915A020E94EB1387FD29C020915B02E1
S113137030915C0240915D0250915E02C701B6015A
S11313800E94EB1387FD1BC081E0809365022091CE
S1131390490230914A0240914B0250914C02C701DC
S11313A0B6010E943E150E94571460936802709320
S11313B0690280936A0290936B0280E001C081E02D
S11313C0FF90EF90DF90CF9008956091420270916A
S11313D0430280914402909145020E948A14209114
S11313E0490230914A0240914B0250914C020C94B4
S11313F0EF134F925F926F927F928F929F92AF9270
S1131400BF92CF92DF92EF92FF926B017C0120E0BA
S113141030E0A9010E943A1518160CF0B4C02091CE
S11314205202309153024091540250915502C70127
S1131430B6010E94EB1318162CF4809151028823F4
S113144009F4A1C04090490250904A0260904B02B6
S113145070904C02A3019201C701B6010E943E158F
S11314604B015C0120E030E045E753E40E943A156B
S1131470181634F481E08093410281E090E035C095
S113148020E030E048EF51E4C501B4010E943A1570
S1131490181634F482E08093410288E090E025C07D
S11314A020E030E040E850E4C501B4010E943A1560
S11314B0181634F483E08093410280E490E015C070
S11314C020E030E040E85FE3C501B4010E943A1532
S11314D0181634F484E08093410280E091E005C062
S11314E085E08093410280E094E090938A028093A7
S11314F089026091890270918A02072E000C880B80
S1131500990B0E948A144B015C019B01AC01C3013D
S1131510B2010E943E159B01AC0160E074E284E7D5
S11315209BE40E94EF13609395027093960280935C
S1131530970290939802A70196010E94EF136B0102
S11315407C01A501940160E074E284E79BE40E94BD
S1131550EF1324EA3CE848E356E30E943E159B015E
S1131560AC01C701B6010E9486130E945C14F89472
S113157010929500109294007093990060939800D3
S1131580789480E001C081E0FF90EF90DF90CF90ED
S1131590BF90AF909F908F907F906F905F904F908F
S11315A008954CE150E060E270E089E492E00E942A
S11315B0041A10929C021092330210926502109247
S11315C0880210928F0210924102109268021092C7
S11315D0690210926A0210926B02109242021092F7
S11315E0430210924402109245023F9A569A279A57
S11315F057982F98F8941092900088E18093910066
S1131600109295001092940082E080937100789477
S113161060914D0270914E0280914F029091500260
S1131620E8CECF92DF92EF92FF92CF93DF93C091F7
S11316309800D09199006091890270918A02072ED6
S1131640000C880B990B0E948A149B01AC0160E08A
S113165074E284E79BE40E94EF1324EA3CE848E345
S113166056E30E943E156B017C01BE0180E090E0D0
S11316700E9488149B01AC01C701B6010E94871324
S11316809B01AC0160919502709196028091970242
S1131690909198020E94EF13DF91CF91FF90EF9009
S11316A0DF90CF900895F8948330A9F044F481300A
S11316B071F0823039F5809191008E7F0FC08430B3
S11316C099F08530F9F480919100816010C0809187
S11316D0910081601AC08091910081608093910093
S11316E080919100826016C0809191008E7F8093DA
S11316F09100809191008D7F809391008091910061
S113170084600DC0809191008E7F809391008091C0
S113171091008D7F80939100809191008B7F8093C5
S113172091007894089590919C0287FF0DC09923AD
S113173021F080913302882331F110923302809199
S11317406302882381F011C08823B9F0992321F022
S113175080913302811117C081E08093330280911C
S11317606302882311F05E9801C05E9A8091410261
S11317709ADF81E080939C020895992321F080E010
S113178092DF10929C0208950F931F93CF93DF93DF
S1131790EC0180918F02823039F1833009F45BC00F
S11317A0009142021091430220914402309145027B
S11317B0409168025091690260916A0270916B02D3
S11317C0813009F05CC0041715072607370739F084
S11317D004171507260737070CF460C05AC080E0C9
S11317E0A2DF10928F025BC089B12091640230E0C5
S11317F0082E000C990B8827990F881F9927281702
S1131800390709F446C081E080938F022091490290
S113181030914A0240914B0250914C0260915F0218
S11318207091600280916102909162020E943E1563
S11318300E945714609342027093430280934402BF
S113184090934502109268021092690210926A0203
S113185010926B0224C089B12091640230E0082EFA
S1131860000C990B8827990F881F99272817390787
S113187091F480E058DF82E080938F0210C0041757
S113188015072607370749F00417150726073707F2
S113189014F08FEF03C081E001C080E044DF809149
S11318A09C0281111DC0809165028130C9F4809130
S11318B08802882359F080918F02811111C01092FF
S11318C065021092880264E971E004C01092650216
S11318D069E971E0CE01DF91CF911F910F9189C029
S11318E0DF91CF911F910F9108951F920F920FB620
S11318F00F9211242F933F934F935F936F937F9392
S11319008F939F93AF93BF93EF93FF9310929500A0
S113191010929400479A4091420250914302609180
S11319204402709145028091680290916902A091ED
S11319306A02B0916B02481759076A077B0711F4D2
S113194080E0F1DE80913302811104C08FEF9FEFBC
S1131950DC0104C081E090E0A0E0B0E040914202EC
S1131960509143026091440270914502840F951F87
S1131970A61FB71F8093420290934302A093440290
S1131980B09345024798FF91EF91BF91AF919F911A
S11319908F917F916F915F914F913F912F910F9014
S11319A00FBE0F901F901895CF93DF93EC01FC01AD
S11319B070968BE0DF011D928A95E9F782E08C83B3
S11319C0898783E08E8761E0CE010196C5D28823A2
S11319D061F061E0CE010696BFD2882331F061E068
S11319E0CE010B96DF91CF91B7C280E0DF91CF910A
S11319F00895DB012091A1022430C9F4FC0144893B
S1131A00558966897789452B462B472B81F081813F
S1131A108F708093E900FD0101900020E9F7319770
S1131A20BF016A1B7B0B40E050E0CD0158C182E04E
S1131A3008950F931F93CF932091A1022430F9F4BA
S1131A40FC010489158926893789012B022B032B74
S1131A50B1F0C62F81818F708093E9008091E800F6
S1131A6085FF04C0C093F10080E00AC08091E800C3
S1131A708E778093E800CCD28823A1F301C082E062
S1131A80CF911F910F9108952091A102243041F527
S1131A90FC014489558966897789452B462B472B58
S1131AA0F9F081818F708093E9002091F300809197
S1131AB0F20090E0922B892B89F09091E8008091BC
S1131AC0E8008E778093E80095FD08C0A1D28111CB
S1131AD008C08091E8008E778093E80080E0089544
S1131AE082E008952091A102243089F4FC01448904
S1131AF0558966897789452B462B472B41F02181EF
S1131B002F702093E9002091E80020FDBDCF0895B7
S1131B102091A102243019F08FEF9FEF0895FC016A
S1131B204489558966897789452B462B472BA1F330
S1131B3086818F708093E9008091E80082FFECCF6A
S1131B402091F3008091F20090E0922B892B21F0F8
S1131B502091F10030E002C02FEF3FEF4091F300FD
S1131B608091F20090E0942B892B29F48091E80075
S1131B708B778093E800C901089508950895CF9361
S1131B80DF93EC018091E80083FFA6C0888190E098
S1131B902091A6023091A7022817390709F09CC0AA
S1131BA08091A302813261F020F4803209F43EC0B6
S1131BB093C0823209F46CC0833209F47DC08CC0B6
S1131BC08091A202813A09F087C08091E800877F62
S1131BD08093E8008091E80080FFFCCF8C899D8988
S1131BE0AE89BF898093F100492F5A2F6B2F772735
S1131BF04093F100AD01662777274093F1008B2FC6
S1131C009927AA27BB278093F100888D8093F10040
S1131C10898D8093F1008A8D8093F1008091E80092
S1131C208E778093E800DF91CF91D3C18091A20297
S1131C30813209F051C08091E800877F8093E800E9
S1131C408091E80082FD05C08091A1028111F8CF46
S1131C5043C03091F1002091F1009091F100809106
S1131C60F1003C8B2D8B9E8B8F8B8091F100888FA4
S1131C708091F100898F8091F1008A8F8091E80032
S1131C808B778093E800A5D1CE01DF91CF9175CFFA
S1131C908091A202813201F58091E800877F8093D0
S1131CA0E80097D18091A4029091A502998B888B2A
S1131CB0CE01DF91CF9129C58091A202813261F4D6
S1131CC08091E800877F8093E80083D16091A4022B
S1131CD0CE01DF91CF9152CFDF91CF910895CF9272
S1131CE0DF92EF92FF920F931F93CF93DF93EC0158
S1131CF08B017A018DD1811132C0E114F10439F0E4
S1131D00F70180819181081B190BC80FD91FC12CC1
S1131D10D12C0115110511F18091E80085FD15C044
S1131D208091E8008E778093E800E114F10449F093
S1131D30F70180819181C80ED91ED182C08285E0CD
S1131D400EC066D1882329F30AC089918093F100DB
S1131D5001501109FFEFCF1ADF0ADBCF80E0DF91DA
S1131D60CF911F910F91FF90EF90DF90CF90089546
S1131D702091A8023091A9022617370748F061156F
S1131D80710539F42091E8002E772093E80001C012
S1131D90B901FC0120E06115710579F18091A1027E
S1131DA08823F1F18530F1F18091E80083FD3CC096
S1131DB08091E80082FD2EC08091E80080FFEBCF87
S1131DC02091F3008091F20090E0922B611571054F
S1131DD051F08830910538F421912093F10061503D
S1131DE071090196F3CF21E0089709F020E0809172
S1131DF0E8008E778093E800CECF2111CFCF0AC0C0
S1131E008091A102882361F0853061F08091E8001F
S1131E1083FD0AC08091E80082FFF2CF80E008953C
S1131E2082E0089583E0089581E008952091A80256
S1131E303091A9022617370748F06115710539F466
S1131E402091E8002E772093E80001C0B901FC013D
S1131E5020E06115710591F18091A102882309F4B4
S1131E6040C0853009F43FC08091E80083FD3DC047
S1131E708091E80082FD2FC08091E80080FFE9CFC7
S1131E802091F3008091F20090E0922B611571058E
S1131E9059F08830910540F424912093F100319653
S1131EA0615071090196F2CF21E0089709F020E012
S1131EB08091E8008E778093E800CBCF2111CCCFBE
S1131EC00AC08091A102882361F0853061F080917D
S1131ED0E80083FD0AC08091E80082FFF2CF80E031
S1131EE0089582E0089583E0089581E00895982F8D
S1131EF0973068F59093E900981739F07091EC00E9
S1131F002091ED005091F00003C0242F762F50E073
S1131F1021FD02C09F5FECCF3091EB003E7F3093F8
S1131F20EB003091ED003D7F3093ED003091EB00FC
S1131F3031603093EB007093EC002093ED005093EC
S1131F40F0002091EE0027FDE5CF80E008958F702A
S1131F508093E90081E008950F931F93CF93DF935B
S1131F60062FEC0110E0101771F16881611103C0B4
S1131F701F5F2596F8CF2C81A981BA819B81862F7A
S1131F808F70873010F080E01FC0223010F442E0E0
S1131F9001C046E0E8E0F0E020E0EA17FB0720F4A7
S1131FA02F5FEE0FFF1FF9CF2295207F422B50E4C5
S1131FB0959F90011124661F6627661F622B97DF89
S1131FC08111D6CFE0CF81E0DF91CF911F910F91A6
S1131FD008958091A20287FF11C08091E80082FDDC
S1131FE005C08091A1028111F8CF11C08091E80051
S1131FF08B770BC08091A102882349F08091E8007F
S113200080FFF8CF8091E8008E778093E8000895F0
S11320102091E4003091E50095E64091EC00842F96
S1132020817040FF23C08091E80080FD1DC0809135
S1132030A102882399F0853099F08091EB0085FD09
S113204011C04091E4005091E5002417350729F3AD
S1132050915011F09A01E1CF84E0089582E008954F
S113206083E0089581E0089580E008954091E800B8
S113207042FFDDCF08950F931F93CF93DF934BD08F
S113208052D0C8EDD0E088818F77888388818068BA
S1132090888388818F7D888319BC1092A102109255
S11320A09D0210929F0210929E0200EE10E0F80131
S11320B080818B7F808388818160888342E060E0B7
S11320C080E015DFE1EEF0E080818E7F8083E2EE38
S11320D0F0E0808181608083808188608083F80162
S11320E080818E7F8083888180618883DF91CF9116
S11320F01F910F910895E8EDF0E080818F7E808339
S1132100E7EDF0E080818160808384E082BF81E03C
S11321108093A002B0CFE8EDF0E080818E7F8083D1
S11321201092E20008951092DA001092E1000895EE
S11321301F920F920FB60F9211242F933F934F9338
S11321405F936F937F938F939F93AF93BF93EF931B
S1132150FF938091E10082FF0AC08091E20082FF38
S113216006C08091E1008B7F8093E10051D2809181
S1132170DA0080FF1DC08091D80080FF19C08091D3
S1132180DA008E7F8093DA008091D90080FF0CC042
S113219080E189BD82E189BD09B400FEFDCF81E003
S11321A08093A102AAD204C019BC1092A102A6D2A3
S11321B08091E10080FF18C08091E20080FF14C08C
S11321C08091E2008E7F8093E2008091E200806142
S11321D08093E2008091D80080628093D80019BC7B
S11321E085E08093A10214D28091E10084FF2FC086
S11321F08091E20084FF2BC080E189BD82E189BD2A
S113220009B400FEFDCF8091D8008F7D8093D80063
S11322108091E1008F7E8093E1008091E2008F7EC7
S11322208093E2008091E20081608093E2008091DB
S11322309D02882311F084E007C08091E30087FDAC
S113224002C081E001C083E08093A102E1D18091CA
S1132250E10083FF27C08091E20083FF23C08091C7
S1132260E100877F8093E10082E08093A1021092D5
S11322709D028091E1008E7F8093E1008091E200D5
S11322808E7F8093E2008091E20080618093E2007F
S113229042E060E080E02BDE8091F0008860809373
S11322A0F000B6D1FF91EF91BF91AF919F918F91C3
S11322B07F916F915F914F913F912F910F900FBE3E
S11322C00F901F9018951F920F920FB60F92112422
S11322D02F933F934F935F936F937F938F939F932A
S11322E0AF93BF93CF93DF93EF93FF93C091E90034
S11322F0CF708091EC00D82FD17080FDD0E810927F
S1132300E9008091F000877F8093F00078941ED0DC
S11323101092E9008091F00088608093F000CD2B4A
S1132320CF70C093E900FF91EF91DF91CF91BF91FE
S1132330AF919F918F917F916F915F914F913F9159
S11323402F910F900FBE0F901F9018951F93CF934E
S1132350DF93CDB7DEB7AA970FB6F894DEBF0FBEF2
S1132360CDBFE2EAF2E08091F100819322E0EA3A03
S1132370F207C9F7C7D18091E80083FF31C180918A
S1132380A2029091A302953009F483C030F49130F5
S1132390A9F168F0933091F123C1983009F4F0C0A9
S11323A0993009F4FCC0963009F01AC194C0803801
S11323B021F0823809F014C108C080919E029091E6
S11323C09F02992389F082600FC08091A6028F70CA
S11323D0873008F005C18093E9008091EB0085FB0C
S11323E0882780F91092E9009091E800977F9093F4
S11323F0E8008093F1001092F100CDC0282F2D7FCA
S113240009F0EEC0882319F0823061F0E9C08091B0
S1132410A402813009F0E4C0933009F080E0809395
S11324209F022EC08091A40281112AC08091A6022D
S11324308F702FEF280F263008F0D2C08093E90068
S11324402091EB0020FF1CC0933021F48091EB001D
S1132450806214C09091EB0090619093EB0021E0B6
S113246030E0A90102C0440F551F8A95E2F740935A
S1132470EA001092EA008091EB0088608093EB0000
S11324801092E9008091E800877F8093E800A1DD45
S1132490A7C08111A5C01091A4021F778091E30009
S11324A08078812B8093E3008091E800877F80937C
S11324B0E8008FDD8091E80080FFFCCF8091E3008D
S11324C080688093E300111102C082E001C083E0C0
S11324D08093A10285C08058823008F081C0809129
S11324E0A4029091A5028C3D53E0950771F583E019
S11324F08A838AE289834FB7F894DE01139620E039
S11325003EE051E2E32FF0E050935700E49120FFC6
S113251003C0E295EF703F5FEF708E2F90E0EA30DA
S113252010F0C79601C0C0968D939D932F5F243100
S113253049F74FBF8091E800877F8093E8006AE203
S113254070E0CE01019614DC15C06091A602709172
S1132550A702AE014F5F5F4F0E945905BC01892B52
S113256009F43EC09091E800977F9093E800898138
S11325709A815CDC8091E8008B778093E80030C01E
S1132580803871F58091E800877F8093E80080911E
S11325909D028093F1008091E8008E7776CF8111BF
S11325A01FC08091A4029091A50299270297C4F4B8
S11325B08091E800877F8093E8008091A402809353
S11325C09D0207DD80919D02811106C08091E30088
S11325D087FD02C081E001C084E08093A1028FD016
S11325E08091E80083FF0AC08091E800877F809390
S11325F0E8008091EB0080628093EB00AA960FB60E
S1132600F894DEBF0FBECDBFDF91CF911F91089527
S11326100895CF938091A102882399F0C091E90095
S1132620CF709091EC00892F817090FD80E8C82BC9
S11326301092E9008091E80083FD88DECF70C0939A
S1132640E900CF91089510922F0210922E02109259
S1132650900284B7877F84BF0FB6F894A8958091C1
S11326606000886180936000109260000FBE90E06B
S113267080E80FB6F89480936100909361000FBED8
S11326803ADD7894209A559A289A5D9AEEE1F2E020
S11326902FB7F8948EE991E09183808393838283AA
S11326A0958384838EE192E09783868380E890E02B
S11326B091878087138612862FBF0E9464070E9429
S11326C0D10A80E091E00E94570880E091E05CD854
S11326D06EE172E080E091E00E94E2006EE172E05F
S11326E080E091E00E94110180E091E00E946E017F
S11326F080E091E0F7D98DDFE4CF0895089580E07C
S113270091E052C980E091E03ACA08955058BB273D
S1132710AA270ED075C166D130F06BD120F031F408
S11327209F3F11F41EF45BC10EF4E095E7FB51C129
S1132730E92F77D180F3BA176207730784079507E7
S113274018F071F49EF58FC10EF4E0950B2EBA2F9C
S1132750A02D0B01B90190010C01CA01A0011124A3
S1132760FF27591B99F0593F50F4503E68F11A164F
S1132770F040A22F232F342F4427585FF3CF4695E0
S113278037952795A795F0405395C9F77EF41F1602
S1132790BA0B620B730B840BBAF09150A1F0FF0FCC
S11327A0BB1F661F771F881FC2F70EC0BA0F621FB8
S11327B0731F841F48F4879577956795B795F795A8
S11327C09E3F08F0B3CF9395880F08F09927EE0F3A
S11327D0979587950895D9D008F481E008950CD091
S11327E00FC107D140F0FED030F021F45F3F19F063
S11327F0F0C0511139C1F3C014D198F39923C9F32E
S11328005523B1F3951B550BBB27AA2762177307F2
S1132810840738F09F5F5F4F220F331F441FAA1FA6
S1132820A9F333D00E2E3AF0E0E830D09150504066
S1132830E695001CCAF729D0FE2F27D0660F771F14
S1132840881FBB1F261737074807AB07B0E809F0F6
S1132850BB0B802DBF01FF2793585F4F2AF09E3F8B
S1132860510568F0B6C000C15F3FECF3983EDCF35D
S1132870869577956795B795F7959F5FC9F7880F04
S1132880911D9695879597F90895E1E0660F771F56
S1132890881FBB1F621773078407BA0720F0621BE7
S11328A0730B840BBA0BEE1F88F7E095089504D0E0
S11328B06894B111D9C00895BCD088F09F5790F0A6
S11328C0B92F9927B751A0F0D1F0660F771F881F51
S11328D0991F1AF0BA95C9F712C0B13081F0C3D06C
S11328E0B1E00895C0C0672F782F8827B85F39F00A
S11328F0B93FCCF3869577956795B395D9F73EF4B0
S113290090958095709561957F4F8F4F9F4F089557
S1132910E89409C097FB3EF4909580957095619575
S11329207F4F8F4F9F4F9923A9F0F92F96E9BB272B
S11329309395F695879577956795B795F111F8CFA7
S1132940FAF4BB0F11F460FF1BC06F5F7F4F8F4F12
S11329509F4F16C0882311F096E911C0772321F008
S11329609EE8872F762F05C0662371F096E8862FA0
S113297070E060E02AF09A95660F771F881FDAF7F7
S1132980880F9695879597F90895990F0008550F24
S1132990AA0BE0E8FEEF16161706E807F907C0F0E1
S11329A012161306E407F50798F0621B730B840BE9
S11329B0950B39F40A2661F0232B242B252B21F4C3
S11329C008950A2609F4A140A6958FEF811D811D63
S11329D0089597F99F6780E870E060E008959FEF9D
S11329E080EC089500240A941616170618060906A2
S11329F0089500240A941216130614060506089571
S1132A00092E0394000C11F4882352F0BB0F40F4F8
S1132A10BF2B11F460FF04C06F5F7F4F8F4F9F4F38
S1132A20089557FD9058440F551F59F05F3F71F0BA
S1132A304795880F97FB991F61F09F3F79F0879521
S1132A400895121613061406551FF2CF4695F1DFAA
S1132A5008C0161617061806991FF1CF869571053A
S1132A60610508940895E894BB2766277727CB016E
S1132A7097F908958ADF08F48FEF08950BD0C0CF3B
S1132A80B1DF28F0B6DF18F0952309F0A2CFA7CF65
S1132A901124EACFC6DFA0F3959FD1F3950F50E040
S1132AA0551F629FF001729FBB27F00DB11D639FFC
S1132AB0AA27F00DB11DAA1F649F6627B00DA11DA2
S1132AC0661F829F2227B00DA11D621F739FB00D48
S1132AD0A11D621F839FA00D611D221F749F3327B8
S1132AE0A00D611D231F849F600D211D822F762F51
S1132AF06A2F11249F5750408AF0E1F088234AF04E
S1132B00EE0FFF1FBB1F661F771F881F9150504099
S1132B10A9F79E3F510570F05CCFA6CF5F3FECF361
S1132B20983EDCF3869577956795B795F795E79585
S1132B309F5FC1F7FE2B880F911D9695879597F996
S1132B4008952FD020F09F3708F48ECF01C01BC00A
S1132B50882371F4772321F09850872B762F07C0B0
S1132B60662311F499270DC09051862B70E060E024
S1132B702AF09A95660F771F881FDAF7880F9695C3
S1132B80879597F908959F3F31F0915020F48795E8
S1132B9077956795B795880F911D9695879597F9C1
S1132BA0089547DFA0F0BEE7B91788F4BB279F3824
S1132BB060F41616B11D672F782F8827985FF7CF1A
S1132BC0869577956795B11D93959639C8F30895C1
S1132BD06627772703C2FB01DC010D900020E9F78B
S1132BE0119701900D920020E1F70895FB01DC019B
S1132BF001900D920020E1F70895AEE0B0E0E2E02C
S1132C00F6E14BC40D891E8986E08C831A830983FF
S1132C108FEF9FE79E838D83AE01475E5F4F6F8981
S1132C20788DCE01019608D0EF81F885E00FF11F71
S1132C3010822E96E4E04DC4ABE0B0E0E1E2F6E1B0
S1132C401EC46C017B018A01FC01178216828381F8
S1132C5081FFBFC1CE0101963C01F6019381F701CA
S1132C6093FD859193FF81917F01882309F4ADC180
S1132C70853239F493FD859193FF81917F018532EB
S1132C8021F4B60190E023D3E8CF912C212C312CF0
S1132C90FFE1F315D8F08B3279F038F4803279F013
S1132CA08332A1F4232D20611DC08D3261F0803365
S1132CB069F4232D216016C0832D8260382EE32D04
S1132CC0E4603E2E2AC0F32DF8601DC037FC2DC0F1
S1132CD020ED280F2A3040F08E32B9F436FC75C14D
S1132CE0232D2064322E19C036FE06C08AE0989E39
S1132CF0200D1124922E11C0EAE02E9E200D1124E5
S1132D00222EF32DF0623F2E08C08C3621F4832D41
S1132D108068382E02C0883641F4F70193FD85910E
S1132D2093FF81917F018111B3CF982F9F7D95549B
S1132D30933028F40C5F1F4F9FE399830DC08336B3
S1132D4031F0833771F0833509F055C020C0F801A4
S1132D50808189830E5F1F4F88248394912C5301B3
S1132D6012C02801F2E04F0E511CF801A080B1807E
S1132D7036FE03C0692D70E002C06FEF7FEFC5011E
S1132D809BD24C018201F32DFF773F2E15C0280101
S1132D9022E0420E511CF801A080B18036FE03C02F
S1132DA0692D70E002C06FEF7FEFC5017AD24C014C
S1132DB0F32DF0683F2E820133FC19C0822D90E080
S1132DC088169906A0F4B60180E290E080D22A9495
S1132DD0F5CFF50137FC859137FE81915F01B6018E
S1132DE090E075D221102A9421E0821A910881146E
S1132DF0910479F7E1C0843611F0893639F5F80188
S1132E0037FE07C060817181828193810C5F1F4FFF
S1132E1008C060817181072E000C880B990B0E5F2E
S1132E201F4FF32DFF763F2E97FF09C09095809595
S1132E30709561957F4F8F4F9F4FF0683F2E2AE02A
S1132E4030E0A30180D2882E861844C0853731F43F
S1132E50232D2F7EB22E2AE030E025C0932D997FBA
S1132E60B92E8F36C1F018F4883579F0AEC08037AA
S1132E7019F0883721F0A9C0E92FE061BE2EB4FE15
S1132E800DC0FB2DF460BF2E09C034FE0AC0292FEB
S1132E902660B22E06C028E030E005C020E130E014
S1132EA002C020E132E0F801B7FE07C06081718101
S1132EB0828193810C5F1F4F06C06081718180E025
S1132EC090E00E5F1F4FA3013ED2882E8618FB2D83
S1132ED0FF773F2E36FE0DC0232D2E7FA22E8914A0
S1132EE058F434FE0BC032FC09C0832D8E7EA82E0C
S1132EF005C0B82CA32C03C0B82C01C0B92CA4FE67
S1132F000FC0FE01E80DF11D8081803321F49A2D5C
S1132F10997EA92E09C0A2FE06C0B394B39404C03E
S1132F208A2D867809F0B394A3FC10C0A0FE06C0D5
S1132F30B21480F4280C922C9B180DC0B21458F4CF
S1132F40B60180E290E0C3D1B394F8CFB21418F480
S1132F502B1802C0982C212CA4FE0FC0B60180E3CC
S1132F6090E0B5D1A2FE16C0A1FC03C088E790E0B2
S1132F7002C088E590E0B6010CC08A2D867851F035
S1132F80A1FE02C08BE201C080E2A7FC8DE2B60183
S1132F9090E09DD1891430F4B60180E390E097D19C
S1132FA09A94F8CF8A94F301E80DF11D8081B6015B
S1132FB090E08DD18110F6CF222009F44ECEB601D7
S1132FC080E290E084D12A94F7CFF601868197813C
S1132FD002C08FEF9FEF2B96E2E16DC2A0E0B0E05C
S1132FE0E3EFF7E152C2EC016B016115710519F0D1
S1132FF0FB01918380837E01FFEFEF1AFF0A0881B2
S1133000802F90E02ED1892B11F0E701F4CF0D32FF
S113301039F47E0182E0E80EF11C098111E008C058
S11330200B3229F47E0192E0E90EF11C098110E0D3
S1133030E701219743E050E064EB70E0CE0119D141
S1133040892BB9F4239645E050E06FEA70E0CE0195
S113305010D1892B09F42596C114D10419F0F60175
S1133060D183C0831111F0C060E070E080E89FE775
S1133070F4C043E050E06CEA70E0CE01FAD0892B52
S113308059F4C114D10409F4E4C0F2E0EF0EF11CC8
S1133090F601F182E082DDC020E030E0A901C0E069
S11330A0D0E0F70180EDA82EA00E89E08A1528F162
S11330B0912F9260B92E812F887012FF04C0811164
S11330C023C0219621C081112197A5E0B0E0CDD184
S11330D0DC01CB01880F991FAA1FBB1F9C01AD0106
S11330E02A0D311D411D511D283989E9380748072A
S11330F089E1580748F0166006C09EEFA9120AC07D
S113310013FD40C01860B12E8FEFE81AF80A008151
S11331101B2DC7CF802F8F7D8534A1F580818D3203
S113312011F4106106C08B3221F0319661E070E039
S113313004C08181329662E070E080538A3018F0D6
S1133140E61BF70B1FC060E070E060389CE0790775
S11331505CF4DB01AA0FBB1FAA0FBB1F6A0F7B1F06
S1133160660F771F680F711D3196DF0111978C91DF
S113317080538A3050F314FF03C07195619571092F
S1133180C60FD71F11FF08C0C114D10429F0CF0105
S11331900197F60191838083CA01B901B9DB212F1C
S11331A02370233019F04B015C0106C04B015C0114
S11331B0B7FAB094B7F8B09420E030E0A901C501A3
S11331C0B40109DB882309F43CC0D7FF06C0D195BC
S11331D0C195D1090BEC10E002C003EE10E06801C8
S11331E0F8E1CF1AD10890E2E92EF12CCE15DF05D3
S11331F06CF0F8012591359145915491C501B401C4
S11332003DDC4B015C01CE19DF09F0CF04501109FC
S1133210F594E7940C151D0549F78A2D880F8B2D1D
S1133220881F8F3F41F020E030E0A901C501B401BF
S1133230D2DA811106C082E290E09093AB028093CF
S1133240AA02C501B40109C060E070E080E89FEF04
S113325004C060E070E080EC9FE7CDB7DEB7ECE03F
S113326030C19111CEC0803219F089508550D0F709
S11332700895FB01DC014150504088F08D91813468
S11332801CF08B350CF4805E659161341CF06B3559
S11332900CF4605E861B611171F3990B0895881B11
S11332A0FCCFFC010590615070400110D8F7809567
S11332B090958E0F9F1F0895FC01615070400190FE
S11332C00110D8F7809590958E0F9F1F08950F9346
S11332D01F93CF93DF93FB01238121FD03C08FEF65
S11332E09FEF2CC022FF16C046815781248135816F
S11332F04217530744F4A081B1819D012F5F3F4FD2
S1133300318320838C93268137812F5F3F4F37830E
S1133310268314C08B01EC01FB010084F185E02DB0
S11333200995892BE1F6D80116968D919C911797F2
S1133330019617969C938E931697CE01DF91CF91A9
S11333401F910F910895FA01AA27283051F12031D5
S113335081F1E8946F936E7F6E5F7F4F8F4F9F4F25
S1133360AF4FB1E03ED0B4E03CD0670F781F891F67
S11333709A1FA11D680F791F8A1F911DA11D6A0F35
S1133380711D811D911DA11D20D009F468943F91E8
S11333902AE0269F11243019305D3193DEF6CF01E7
S11333A00895462F4770405D4193B3E00FD0C9F7AD
S11333B0F6CF462F4F70405D4A3318F0495D31FD1A
S11333C04052419302D0A9F7EACFB4E0A69597956D
S11333D0879577956795BA95C9F700976105710543
S11333E008959B01AC010A2E06945795479537958D
S11333F02795BA95C9F7620F731F841F951FA01DE7
S11334000895992788270895DC01CB01FC01F999D7
S1133410FECF06C0F2BDE1BDF89A319600B40D921C
S113342041505040B8F70895DC01A40FB51F415036
S1133430504040F0CB01840F951F2E9105D0415090
S11334405040D8F70895262FF999FECF92BD81BD3B
S1133450F89A019700B4021639F01FBA20BD0FB6CE
S1133460F894FA9AF99A0FBE089540D0A59F900D4A
S1133470B49F900DA49F800D911D112408952F9247
S11334803F924F925F926F927F928F929F92AF92F0
S1133490BF92CF92DF92EF92FF920F931F93CF933D
S11334A0DF93CDB7DEB7CA1BDB0B0FB6F894DEBFD4
S11334B00FBECDBF09942A88398848885F846E84FA
S11334C07D848C849B84AA84B984C884DF80EE8044
S11334D0FD800C811B81AA81B981CE0FD11D0FB64D
S11334E0F894DEBF0FBECDBFED010895A29FB001D9
S11334F0B39FC001A39F700D811D1124911DB29F24
S1113500700D811D1124911D0895F894FFCFC4
S113350E0083100000010410000001820800000175
S113351E00000000000000000000003100300048F0
S113352E4C540045535400504152414D00455849A6
S113353E54005350553D00564C4D3D00564D583D8C
S113354E005644463D00504C4D3D00504D583D00F4
S113355E504D4E3D00524F463D0044494E3D0052A3
S113356E504C3D0041004200533F00533D00503F3C
S113357E00503D00483D005A3D00455352002D0079
S113358E257325642E25303464004148210D0041F5
S111359E50210D004248210D004250210D0025
S9030000FC
